{
  "contractName": "HelloWorld",
  "abi": [
    {
      "inputs": [],
      "stateMutability": "nonpayable",
      "type": "constructor"
    },
    {
      "anonymous": false,
      "inputs": [
        {
          "indexed": true,
          "internalType": "address",
          "name": "owner",
          "type": "address"
        },
        {
          "indexed": true,
          "internalType": "address",
          "name": "approved",
          "type": "address"
        },
        {
          "indexed": true,
          "internalType": "uint256",
          "name": "tokenId",
          "type": "uint256"
        }
      ],
      "name": "Approval",
      "type": "event"
    },
    {
      "anonymous": false,
      "inputs": [
        {
          "indexed": true,
          "internalType": "address",
          "name": "owner",
          "type": "address"
        },
        {
          "indexed": true,
          "internalType": "address",
          "name": "operator",
          "type": "address"
        },
        {
          "indexed": false,
          "internalType": "bool",
          "name": "approved",
          "type": "bool"
        }
      ],
      "name": "ApprovalForAll",
      "type": "event"
    },
    {
      "anonymous": false,
      "inputs": [
        {
          "indexed": false,
          "internalType": "address",
          "name": "buyer",
          "type": "address"
        },
        {
          "indexed": false,
          "internalType": "address",
          "name": "seller",
          "type": "address"
        },
        {
          "indexed": false,
          "internalType": "uint256",
          "name": "saleId",
          "type": "uint256"
        }
      ],
      "name": "BoughtTreeOnSale",
      "type": "event"
    },
    {
      "anonymous": false,
      "inputs": [
        {
          "indexed": false,
          "internalType": "uint256",
          "name": "saleId",
          "type": "uint256"
        }
      ],
      "name": "SaleEnded",
      "type": "event"
    },
    {
      "anonymous": false,
      "inputs": [
        {
          "indexed": true,
          "internalType": "address",
          "name": "from",
          "type": "address"
        },
        {
          "indexed": true,
          "internalType": "address",
          "name": "to",
          "type": "address"
        },
        {
          "indexed": true,
          "internalType": "uint256",
          "name": "tokenId",
          "type": "uint256"
        }
      ],
      "name": "Transfer",
      "type": "event"
    },
    {
      "anonymous": false,
      "inputs": [
        {
          "indexed": false,
          "internalType": "address",
          "name": "saler",
          "type": "address"
        },
        {
          "indexed": false,
          "internalType": "uint256",
          "name": "TreeId",
          "type": "uint256"
        }
      ],
      "name": "TreePutOnSale",
      "type": "event"
    },
    {
      "anonymous": false,
      "inputs": [
        {
          "indexed": false,
          "internalType": "address",
          "name": "requesting",
          "type": "address"
        }
      ],
      "name": "TreeRequested",
      "type": "event"
    },
    {
      "inputs": [
        {
          "internalType": "address",
          "name": "to",
          "type": "address"
        },
        {
          "internalType": "uint256",
          "name": "tokenId",
          "type": "uint256"
        }
      ],
      "name": "approve",
      "outputs": [],
      "stateMutability": "nonpayable",
      "type": "function"
    },
    {
      "inputs": [
        {
          "internalType": "address",
          "name": "owner",
          "type": "address"
        }
      ],
      "name": "balanceOf",
      "outputs": [
        {
          "internalType": "uint256",
          "name": "",
          "type": "uint256"
        }
      ],
      "stateMutability": "view",
      "type": "function",
      "constant": true
    },
    {
      "inputs": [
        {
          "internalType": "uint256",
          "name": "tokenId",
          "type": "uint256"
        }
      ],
      "name": "getApproved",
      "outputs": [
        {
          "internalType": "address",
          "name": "",
          "type": "address"
        }
      ],
      "stateMutability": "view",
      "type": "function",
      "constant": true
    },
    {
      "inputs": [
        {
          "internalType": "address",
          "name": "owner",
          "type": "address"
        },
        {
          "internalType": "address",
          "name": "operator",
          "type": "address"
        }
      ],
      "name": "isApprovedForAll",
      "outputs": [
        {
          "internalType": "bool",
          "name": "",
          "type": "bool"
        }
      ],
      "stateMutability": "view",
      "type": "function",
      "constant": true
    },
    {
      "inputs": [
        {
          "internalType": "uint256",
          "name": "",
          "type": "uint256"
        }
      ],
      "name": "isOnSale",
      "outputs": [
        {
          "internalType": "bool",
          "name": "",
          "type": "bool"
        }
      ],
      "stateMutability": "view",
      "type": "function",
      "constant": true
    },
    {
      "inputs": [],
      "name": "name",
      "outputs": [
        {
          "internalType": "string",
          "name": "",
          "type": "string"
        }
      ],
      "stateMutability": "view",
      "type": "function",
      "constant": true
    },
    {
      "inputs": [],
      "name": "newTokenId",
      "outputs": [
        {
          "internalType": "uint256",
          "name": "",
          "type": "uint256"
        }
      ],
      "stateMutability": "view",
      "type": "function",
      "constant": true
    },
    {
      "inputs": [],
      "name": "owner",
      "outputs": [
        {
          "internalType": "address payable",
          "name": "",
          "type": "address"
        }
      ],
      "stateMutability": "view",
      "type": "function",
      "constant": true
    },
    {
      "inputs": [
        {
          "internalType": "uint256",
          "name": "tokenId",
          "type": "uint256"
        }
      ],
      "name": "ownerOf",
      "outputs": [
        {
          "internalType": "address",
          "name": "",
          "type": "address"
        }
      ],
      "stateMutability": "view",
      "type": "function",
      "constant": true
    },
    {
      "inputs": [
        {
          "internalType": "address",
          "name": "",
          "type": "address"
        }
      ],
      "name": "ownerToFunds",
      "outputs": [
        {
          "internalType": "uint256",
          "name": "",
          "type": "uint256"
        }
      ],
      "stateMutability": "view",
      "type": "function",
      "constant": true
    },
    {
      "inputs": [
        {
          "internalType": "uint256",
          "name": "",
          "type": "uint256"
        }
      ],
      "name": "requests",
      "outputs": [
        {
          "internalType": "address",
          "name": "requesting",
          "type": "address"
        },
        {
          "internalType": "bool",
          "name": "active",
          "type": "bool"
        }
      ],
      "stateMutability": "view",
      "type": "function",
      "constant": true
    },
    {
      "inputs": [
        {
          "internalType": "address",
          "name": "from",
          "type": "address"
        },
        {
          "internalType": "address",
          "name": "to",
          "type": "address"
        },
        {
          "internalType": "uint256",
          "name": "tokenId",
          "type": "uint256"
        }
      ],
      "name": "safeTransferFrom",
      "outputs": [],
      "stateMutability": "nonpayable",
      "type": "function"
    },
    {
      "inputs": [
        {
          "internalType": "address",
          "name": "from",
          "type": "address"
        },
        {
          "internalType": "address",
          "name": "to",
          "type": "address"
        },
        {
          "internalType": "uint256",
          "name": "tokenId",
          "type": "uint256"
        },
        {
          "internalType": "bytes",
          "name": "_data",
          "type": "bytes"
        }
      ],
      "name": "safeTransferFrom",
      "outputs": [],
      "stateMutability": "nonpayable",
      "type": "function"
    },
    {
      "inputs": [
        {
          "internalType": "uint256",
          "name": "",
          "type": "uint256"
        }
      ],
      "name": "sales",
      "outputs": [
        {
          "internalType": "address",
          "name": "owner",
          "type": "address"
        },
        {
          "internalType": "bool",
          "name": "active",
          "type": "bool"
        },
        {
          "internalType": "uint256",
          "name": "TreeId",
          "type": "uint256"
        },
        {
          "internalType": "uint256",
          "name": "valueWei",
          "type": "uint256"
        }
      ],
      "stateMutability": "view",
      "type": "function",
      "constant": true
    },
    {
      "inputs": [
        {
          "internalType": "address",
          "name": "operator",
          "type": "address"
        },
        {
          "internalType": "bool",
          "name": "approved",
          "type": "bool"
        }
      ],
      "name": "setApprovalForAll",
      "outputs": [],
      "stateMutability": "nonpayable",
      "type": "function"
    },
    {
      "inputs": [],
      "name": "symbol",
      "outputs": [
        {
          "internalType": "string",
          "name": "",
          "type": "string"
        }
      ],
      "stateMutability": "view",
      "type": "function",
      "constant": true
    },
    {
      "inputs": [
        {
          "internalType": "uint256",
          "name": "index",
          "type": "uint256"
        }
      ],
      "name": "tokenByIndex",
      "outputs": [
        {
          "internalType": "uint256",
          "name": "",
          "type": "uint256"
        }
      ],
      "stateMutability": "view",
      "type": "function",
      "constant": true
    },
    {
      "inputs": [
        {
          "internalType": "uint256",
          "name": "",
          "type": "uint256"
        }
      ],
      "name": "tokenIdToSaleId",
      "outputs": [
        {
          "internalType": "uint256",
          "name": "",
          "type": "uint256"
        }
      ],
      "stateMutability": "view",
      "type": "function",
      "constant": true
    },
    {
      "inputs": [
        {
          "internalType": "address",
          "name": "owner",
          "type": "address"
        },
        {
          "internalType": "uint256",
          "name": "index",
          "type": "uint256"
        }
      ],
      "name": "tokenOfOwnerByIndex",
      "outputs": [
        {
          "internalType": "uint256",
          "name": "",
          "type": "uint256"
        }
      ],
      "stateMutability": "view",
      "type": "function",
      "constant": true
    },
    {
      "inputs": [
        {
          "internalType": "uint256",
          "name": "tokenId",
          "type": "uint256"
        }
      ],
      "name": "tokenURI",
      "outputs": [
        {
          "internalType": "string",
          "name": "",
          "type": "string"
        }
      ],
      "stateMutability": "view",
      "type": "function",
      "constant": true
    },
    {
      "inputs": [],
      "name": "totalSupply",
      "outputs": [
        {
          "internalType": "uint256",
          "name": "",
          "type": "uint256"
        }
      ],
      "stateMutability": "view",
      "type": "function",
      "constant": true
    },
    {
      "inputs": [
        {
          "internalType": "address",
          "name": "from",
          "type": "address"
        },
        {
          "internalType": "address",
          "name": "to",
          "type": "address"
        },
        {
          "internalType": "uint256",
          "name": "tokenId",
          "type": "uint256"
        }
      ],
      "name": "transferFrom",
      "outputs": [],
      "stateMutability": "nonpayable",
      "type": "function"
    },
    {
      "inputs": [
        {
          "internalType": "uint256",
          "name": "",
          "type": "uint256"
        }
      ],
      "name": "trees",
      "outputs": [
        {
          "internalType": "string",
          "name": "genes",
          "type": "string"
        },
        {
          "internalType": "uint256",
          "name": "birthdate",
          "type": "uint256"
        }
      ],
      "stateMutability": "view",
      "type": "function",
      "constant": true
    },
    {
      "inputs": [],
      "name": "withdraw",
      "outputs": [],
      "stateMutability": "nonpayable",
      "type": "function"
    },
    {
      "inputs": [
        {
          "internalType": "uint256",
          "name": "_treeId",
          "type": "uint256"
        },
        {
          "internalType": "uint256",
          "name": "_valueWei",
          "type": "uint256"
        }
      ],
      "name": "putTreeOnSale",
      "outputs": [],
      "stateMutability": "nonpayable",
      "type": "function"
    },
    {
      "inputs": [
        {
          "internalType": "uint256",
          "name": "_saleId",
          "type": "uint256"
        }
      ],
      "name": "buyTree",
      "outputs": [],
      "stateMutability": "payable",
      "type": "function",
      "payable": true
    },
    {
      "inputs": [
        {
          "internalType": "uint256",
          "name": "_saleId",
          "type": "uint256"
        }
      ],
      "name": "endSale",
      "outputs": [],
      "stateMutability": "nonpayable",
      "type": "function"
    },
    {
      "inputs": [],
      "name": "requestTree",
      "outputs": [],
      "stateMutability": "payable",
      "type": "function",
      "payable": true
    },
    {
      "inputs": [
        {
          "internalType": "string",
          "name": "_genes",
          "type": "string"
        }
      ],
      "name": "mintTree",
      "outputs": [],
      "stateMutability": "nonpayable",
      "type": "function"
    },
    {
      "inputs": [
        {
          "internalType": "bytes4",
          "name": "interfaceId",
          "type": "bytes4"
        }
      ],
      "name": "supportsInterface",
      "outputs": [
        {
          "internalType": "bool",
          "name": "",
          "type": "bool"
        }
      ],
      "stateMutability": "view",
      "type": "function",
      "constant": true
    }
  ],
  "bytecode": "0x60806040526000801b600a553480156200001857600080fd5b506040518060400160405280600481526020017f54726565000000000000000000000000000000000000000000000000000000008152506040518060400160405280600381526020017f547265000000000000000000000000000000000000000000000000000000000081525081600090805190602001906200009d92919062000108565b508060019080519060200190620000b692919062000108565b50505033600c60006101000a81548173ffffffffffffffffffffffffffffffffffffffff021916908373ffffffffffffffffffffffffffffffffffffffff1602179055506000600b819055506200021c565b8280546200011690620001e7565b90600052602060002090601f0160209004810192826200013a576000855562000186565b82601f106200015557805160ff191683800117855562000186565b8280016001018555821562000186579182015b828111156200018557825182559160200191906001019062000168565b5b50905062000195919062000199565b5090565b5b80821115620001b45760008160009055506001016200019a565b5090565b7f4e487b7100000000000000000000000000000000000000000000000000000000600052602260045260246000fd5b600060028204905060018216806200020057607f821691505b602082108103620002165762000215620001b8565b5b50919050565b6147e3806200022c6000396000f3fe6080604052600436106101cd5760003560e01c80637a508022116100f7578063ac12cf4c11610095578063ca24138f11610064578063ca24138f146106b6578063e985e9c5146106d2578063efac52471461070f578063f0f2805f1461074c576101cd565b8063ac12cf4c14610606578063b5f522f714610610578063b88d4fde14610650578063c87b56dd14610679576101cd565b8063957499b2116100d1578063957499b21461054c57806395d89b4114610589578063a22cb465146105b4578063a9cf3bbb146105dd576101cd565b80637a508022146104a557806381d12c58146104e35780638da5cb5b14610521576101cd565b80632f745c591161016f5780634f6ccce71161013e5780634f6ccce7146103c55780636352211e1461040257806370a082311461043f57806379f3b4811461047c576101cd565b80632f745c591461031d578063340754ed1461035a5780633ccfd60b1461038557806342842e0e1461039c576101cd565b8063081812fc116101ab578063081812fc14610263578063095ea7b3146102a057806318160ddd146102c957806323b872dd146102f4576101cd565b806301ffc9a7146101d257806304d1a8461461020f57806306fdde0314610238575b600080fd5b3480156101de57600080fd5b506101f960048036038101906101f4919061304b565b610789565b6040516102069190613093565b60405180910390f35b34801561021b57600080fd5b50610236600480360381019061023191906130e4565b61079b565b005b34801561024457600080fd5b5061024d61098b565b60405161025a91906131aa565b60405180910390f35b34801561026f57600080fd5b5061028a600480360381019061028591906130e4565b610a1d565b604051610297919061320d565b60405180910390f35b3480156102ac57600080fd5b506102c760048036038101906102c29190613254565b610aa2565b005b3480156102d557600080fd5b506102de610bb9565b6040516102eb91906132a3565b60405180910390f35b34801561030057600080fd5b5061031b600480360381019061031691906132be565b610bc6565b005b34801561032957600080fd5b50610344600480360381019061033f9190613254565b610c26565b60405161035191906132a3565b60405180910390f35b34801561036657600080fd5b5061036f610ccb565b60405161037c91906132a3565b60405180910390f35b34801561039157600080fd5b5061039a610cd1565b005b3480156103a857600080fd5b506103c360048036038101906103be91906132be565b610da4565b005b3480156103d157600080fd5b506103ec60048036038101906103e791906130e4565b610dc4565b6040516103f991906132a3565b60405180910390f35b34801561040e57600080fd5b50610429600480360381019061042491906130e4565b610e35565b604051610436919061320d565b60405180910390f35b34801561044b57600080fd5b5061046660048036038101906104619190613311565b610ee6565b60405161047391906132a3565b60405180910390f35b34801561048857600080fd5b506104a3600480360381019061049e919061333e565b610f9d565b005b3480156104b157600080fd5b506104cc60048036038101906104c791906130e4565b611183565b6040516104da92919061337e565b60405180910390f35b3480156104ef57600080fd5b5061050a600480360381019061050591906130e4565b61123f565b6040516105189291906133ae565b60405180910390f35b34801561052d57600080fd5b5061053661129c565b60405161054391906133f8565b60405180910390f35b34801561055857600080fd5b50610573600480360381019061056e91906130e4565b6112c2565b60405161058091906132a3565b60405180910390f35b34801561059557600080fd5b5061059e6112da565b6040516105ab91906131aa565b60405180910390f35b3480156105c057600080fd5b506105db60048036038101906105d6919061343f565b61136c565b005b3480156105e957600080fd5b5061060460048036038101906105ff91906135b4565b611382565b005b61060e611532565b005b34801561061c57600080fd5b50610637600480360381019061063291906130e4565b611700565b60405161064794939291906135fd565b60405180910390f35b34801561065c57600080fd5b50610677600480360381019061067291906136e3565b61176d565b005b34801561068557600080fd5b506106a0600480360381019061069b91906130e4565b6117cf565b6040516106ad91906131aa565b60405180910390f35b6106d060048036038101906106cb91906130e4565b611876565b005b3480156106de57600080fd5b506106f960048036038101906106f49190613766565b611c54565b6040516107069190613093565b60405180910390f35b34801561071b57600080fd5b5061073660048036038101906107319190613311565b611ce8565b60405161074391906132a3565b60405180910390f35b34801561075857600080fd5b50610773600480360381019061076e91906130e4565b611d00565b6040516107809190613093565b60405180910390f35b600061079482611d20565b9050919050565b80601281815481106107b0576107af6137a6565b5b906000526020600020906003020160000160149054906101000a900460ff1661080e576040517f08c379a000000000000000000000000000000000000000000000000000000000815260040161080590613821565b60405180910390fd5b3373ffffffffffffffffffffffffffffffffffffffff1660128381548110610839576108386137a6565b5b906000526020600020906003020160000160009054906101000a900473ffffffffffffffffffffffffffffffffffffffff1673ffffffffffffffffffffffffffffffffffffffff16146108c1576040517f08c379a00000000000000000000000000000000000000000000000000000000081526004016108b89061388d565b60405180910390fd5b6000601283815481106108d7576108d66137a6565b5b906000526020600020906003020160000160146101000a81548160ff0219169083151502179055506000600e600060128581548110610919576109186137a6565b5b906000526020600020906003020160010154815260200190815260200160002060006101000a81548160ff0219169083151502179055507f94bb74a9473ae4063ec1e73dc3e35fd4b5abe9cc1e43ad0db84e5358559ccd5a8260405161097f91906132a3565b60405180910390a15050565b60606000805461099a906138dc565b80601f01602080910402602001604051908101604052809291908181526020018280546109c6906138dc565b8015610a135780601f106109e857610100808354040283529160200191610a13565b820191906000526020600020905b8154815290600101906020018083116109f657829003601f168201915b5050505050905090565b6000610a2882611d9a565b610a67576040517f08c379a0000000000000000000000000000000000000000000000000000000008152600401610a5e9061397f565b60405180910390fd5b6004600083815260200190815260200160002060009054906101000a900473ffffffffffffffffffffffffffffffffffffffff169050919050565b6000610aad82610e35565b90508073ffffffffffffffffffffffffffffffffffffffff168373ffffffffffffffffffffffffffffffffffffffff1603610b1d576040517f08c379a0000000000000000000000000000000000000000000000000000000008152600401610b1490613a11565b60405180910390fd5b8073ffffffffffffffffffffffffffffffffffffffff16610b3c611e06565b73ffffffffffffffffffffffffffffffffffffffff161480610b6b5750610b6a81610b65611e06565b611c54565b5b610baa576040517f08c379a0000000000000000000000000000000000000000000000000000000008152600401610ba190613aa3565b60405180910390fd5b610bb48383611e0e565b505050565b6000600880549050905090565b610bd7610bd1611e06565b82611ec7565b610c16576040517f08c379a0000000000000000000000000000000000000000000000000000000008152600401610c0d90613b35565b60405180910390fd5b610c21838383611fa5565b505050565b6000610c3183610ee6565b8210610c72576040517f08c379a0000000000000000000000000000000000000000000000000000000008152600401610c6990613bc7565b60405180910390fd5b600660008473ffffffffffffffffffffffffffffffffffffffff1673ffffffffffffffffffffffffffffffffffffffff168152602001908152602001600020600083815260200190815260200160002054905092915050565b600b5481565b6000600f60003373ffffffffffffffffffffffffffffffffffffffff1673ffffffffffffffffffffffffffffffffffffffff1681526020019081526020016000205490506000600f60003373ffffffffffffffffffffffffffffffffffffffff1673ffffffffffffffffffffffffffffffffffffffff168152602001908152602001600020819055503373ffffffffffffffffffffffffffffffffffffffff166108fc829081150290604051600060405180830381858888f19350505050158015610da0573d6000803e3d6000fd5b5050565b610dbf8383836040518060200160405280600081525061176d565b505050565b6000610dce610bb9565b8210610e0f576040517f08c379a0000000000000000000000000000000000000000000000000000000008152600401610e0690613c59565b60405180910390fd5b60088281548110610e2357610e226137a6565b5b90600052602060002001549050919050565b6000806002600084815260200190815260200160002060009054906101000a900473ffffffffffffffffffffffffffffffffffffffff169050600073ffffffffffffffffffffffffffffffffffffffff168173ffffffffffffffffffffffffffffffffffffffff1603610edd576040517f08c379a0000000000000000000000000000000000000000000000000000000008152600401610ed490613ceb565b60405180910390fd5b80915050919050565b60008073ffffffffffffffffffffffffffffffffffffffff168273ffffffffffffffffffffffffffffffffffffffff1603610f56576040517f08c379a0000000000000000000000000000000000000000000000000000000008152600401610f4d90613d7d565b60405180910390fd5b600360008373ffffffffffffffffffffffffffffffffffffffff1673ffffffffffffffffffffffffffffffffffffffff168152602001908152602001600020549050919050565b813373ffffffffffffffffffffffffffffffffffffffff16610fbe82610e35565b73ffffffffffffffffffffffffffffffffffffffff1614611014576040517f08c379a000000000000000000000000000000000000000000000000000000000815260040161100b90613de9565b60405180910390fd5b600060405180608001604052803373ffffffffffffffffffffffffffffffffffffffff1681526020016001151581526020018581526020018481525090506001600e600086815260200190815260200160002060006101000a81548160ff021916908315150217905550601280549050600d600086815260200190815260200160002081905550601281908060018154018082558091505060019003906000526020600020906003020160009091909190915060008201518160000160006101000a81548173ffffffffffffffffffffffffffffffffffffffff021916908373ffffffffffffffffffffffffffffffffffffffff16021790555060208201518160000160146101000a81548160ff021916908315150217905550604082015181600101556060820151816002015550507f0e25269d6b92e3d377b7da2a732e65193fb627672a6f7b2e6473def307c624ef3385604051611175929190613e09565b60405180910390a150505050565b6011818154811061119357600080fd5b90600052602060002090600202016000915090508060000180546111b6906138dc565b80601f01602080910402602001604051908101604052809291908181526020018280546111e2906138dc565b801561122f5780601f106112045761010080835404028352916020019161122f565b820191906000526020600020905b81548152906001019060200180831161121257829003601f168201915b5050505050908060010154905082565b6010818154811061124f57600080fd5b906000526020600020016000915090508060000160009054906101000a900473ffffffffffffffffffffffffffffffffffffffff16908060000160149054906101000a900460ff16905082565b600c60009054906101000a900473ffffffffffffffffffffffffffffffffffffffff1681565b600d6020528060005260406000206000915090505481565b6060600180546112e9906138dc565b80601f0160208091040260200160405190810160405280929190818152602001828054611315906138dc565b80156113625780601f1061133757610100808354040283529160200191611362565b820191906000526020600020905b81548152906001019060200180831161134557829003601f168201915b5050505050905090565b61137e611377611e06565b8383612200565b5050565b600c60009054906101000a900473ffffffffffffffffffffffffffffffffffffffff1673ffffffffffffffffffffffffffffffffffffffff163373ffffffffffffffffffffffffffffffffffffffff1614611412576040517f08c379a000000000000000000000000000000000000000000000000000000000815260040161140990613ea4565b60405180910390fd5b6064600b5410611457576040517f08c379a000000000000000000000000000000000000000000000000000000000815260040161144e90613f36565b60405180910390fd5b6114a66010600b54815481106114705761146f6137a6565b5b9060005260206000200160000160009054906101000a900473ffffffffffffffffffffffffffffffffffffffff16600b5461236c565b6000604051806040016040528083815260200142815250905060118190806001815401808255809150506001900390600052602060002090600202016000909190919091506000820151816000019080519060200190611507929190612f3c565b506020820151816001015550506001600b60008282546115279190613f85565b925050819055505050565b6064600b5410611577576040517f08c379a000000000000000000000000000000000000000000000000000000000815260040161156e90613f36565b60405180910390fd5b670de0b6b3a7640000341461158b57600080fd5b34600f6000600c60009054906101000a900473ffffffffffffffffffffffffffffffffffffffff1673ffffffffffffffffffffffffffffffffffffffff1673ffffffffffffffffffffffffffffffffffffffff16815260200190815260200160002060008282546115fc9190613f85565b92505081905550600060405180604001604052803373ffffffffffffffffffffffffffffffffffffffff1681526020016001151581525090506010819080600181540180825580915050600190039060005260206000200160009091909190915060008201518160000160006101000a81548173ffffffffffffffffffffffffffffffffffffffff021916908373ffffffffffffffffffffffffffffffffffffffff16021790555060208201518160000160146101000a81548160ff02191690831515021790555050507f601a6dc87ae6f751d4737768419fcdc1ab318f4cca7722f90c43aa6c175cd616336040516116f5919061320d565b60405180910390a150565b6012818154811061171057600080fd5b90600052602060002090600302016000915090508060000160009054906101000a900473ffffffffffffffffffffffffffffffffffffffff16908060000160149054906101000a900460ff16908060010154908060020154905084565b61177e611778611e06565b83611ec7565b6117bd576040517f08c379a00000000000000000000000000000000000000000000000000000000081526004016117b490613b35565b60405180910390fd5b6117c98484848461238a565b50505050565b60606117da82611d9a565b611819576040517f08c379a00000000000000000000000000000000000000000000000000000000081526004016118109061404d565b60405180910390fd5b60006118236123e6565b90506000815111611843576040518060200160405280600081525061186e565b8061184d846123fd565b60405160200161185e9291906140a9565b6040516020818303038152906040525b915050919050565b806012818154811061188b5761188a6137a6565b5b906000526020600020906003020160000160149054906101000a900460ff166118e9576040517f08c379a00000000000000000000000000000000000000000000000000000000081526004016118e090613821565b60405180910390fd5b61191760128381548110611900576118ff6137a6565b5b906000526020600020906003020160010154610e35565b73ffffffffffffffffffffffffffffffffffffffff1660128381548110611941576119406137a6565b5b906000526020600020906003020160000160009054906101000a900473ffffffffffffffffffffffffffffffffffffffff1673ffffffffffffffffffffffffffffffffffffffff16146119c9576040517f08c379a00000000000000000000000000000000000000000000000000000000081526004016119c09061413f565b60405180910390fd5b34601283815481106119de576119dd6137a6565b5b9060005260206000209060030201600201541115611a31576040517f08c379a0000000000000000000000000000000000000000000000000000000008152600401611a28906141ab565b60405180910390fd5b34600f600060128581548110611a4a57611a496137a6565b5b906000526020600020906003020160000160009054906101000a900473ffffffffffffffffffffffffffffffffffffffff1673ffffffffffffffffffffffffffffffffffffffff1673ffffffffffffffffffffffffffffffffffffffff1681526020019081526020016000206000828254611ac59190613f85565b925050819055506000600e600060128581548110611ae657611ae56137a6565b5b906000526020600020906003020160010154815260200190815260200160002060006101000a81548160ff021916908315150217905550600060128381548110611b3357611b326137a6565b5b906000526020600020906003020160000160146101000a81548160ff021916908315150217905550611bd060128381548110611b7257611b716137a6565b5b906000526020600020906003020160000160009054906101000a900473ffffffffffffffffffffffffffffffffffffffff163360128581548110611bb957611bb86137a6565b5b906000526020600020906003020160010154611fa5565b7f5769dede23e7f2380cbd4120a3250a285ec4f44b86e5fbd3666ffed56f3c89483360128481548110611c0657611c056137a6565b5b906000526020600020906003020160000160009054906101000a900473ffffffffffffffffffffffffffffffffffffffff1684604051611c48939291906141cb565b60405180910390a15050565b6000600560008473ffffffffffffffffffffffffffffffffffffffff1673ffffffffffffffffffffffffffffffffffffffff16815260200190815260200160002060008373ffffffffffffffffffffffffffffffffffffffff1673ffffffffffffffffffffffffffffffffffffffff16815260200190815260200160002060009054906101000a900460ff16905092915050565b600f6020528060005260406000206000915090505481565b600e6020528060005260406000206000915054906101000a900460ff1681565b60007f780e9d63000000000000000000000000000000000000000000000000000000007bffffffffffffffffffffffffffffffffffffffffffffffffffffffff1916827bffffffffffffffffffffffffffffffffffffffffffffffffffffffff19161480611d935750611d928261255d565b5b9050919050565b60008073ffffffffffffffffffffffffffffffffffffffff166002600084815260200190815260200160002060009054906101000a900473ffffffffffffffffffffffffffffffffffffffff1673ffffffffffffffffffffffffffffffffffffffff1614159050919050565b600033905090565b816004600083815260200190815260200160002060006101000a81548173ffffffffffffffffffffffffffffffffffffffff021916908373ffffffffffffffffffffffffffffffffffffffff160217905550808273ffffffffffffffffffffffffffffffffffffffff16611e8183610e35565b73ffffffffffffffffffffffffffffffffffffffff167f8c5be1e5ebec7d5bd14f71427d1e84f3dd0314c0f7b2291e5b200ac8c7c3b92560405160405180910390a45050565b6000611ed282611d9a565b611f11576040517f08c379a0000000000000000000000000000000000000000000000000000000008152600401611f0890614274565b60405180910390fd5b6000611f1c83610e35565b90508073ffffffffffffffffffffffffffffffffffffffff168473ffffffffffffffffffffffffffffffffffffffff161480611f8b57508373ffffffffffffffffffffffffffffffffffffffff16611f7384610a1d565b73ffffffffffffffffffffffffffffffffffffffff16145b80611f9c5750611f9b8185611c54565b5b91505092915050565b8273ffffffffffffffffffffffffffffffffffffffff16611fc582610e35565b73ffffffffffffffffffffffffffffffffffffffff161461201b576040517f08c379a000000000000000000000000000000000000000000000000000000000815260040161201290614306565b60405180910390fd5b600073ffffffffffffffffffffffffffffffffffffffff168273ffffffffffffffffffffffffffffffffffffffff160361208a576040517f08c379a000000000000000000000000000000000000000000000000000000000815260040161208190614398565b60405180910390fd5b61209583838361263f565b6120a0600082611e0e565b6001600360008573ffffffffffffffffffffffffffffffffffffffff1673ffffffffffffffffffffffffffffffffffffffff16815260200190815260200160002060008282546120f091906143b8565b925050819055506001600360008473ffffffffffffffffffffffffffffffffffffffff1673ffffffffffffffffffffffffffffffffffffffff16815260200190815260200160002060008282546121479190613f85565b92505081905550816002600083815260200190815260200160002060006101000a81548173ffffffffffffffffffffffffffffffffffffffff021916908373ffffffffffffffffffffffffffffffffffffffff160217905550808273ffffffffffffffffffffffffffffffffffffffff168473ffffffffffffffffffffffffffffffffffffffff167fddf252ad1be2c89b69c2b068fc378daa952ba7f163c4a11628f55a4df523b3ef60405160405180910390a4505050565b8173ffffffffffffffffffffffffffffffffffffffff168373ffffffffffffffffffffffffffffffffffffffff160361226e576040517f08c379a000000000000000000000000000000000000000000000000000000000815260040161226590614438565b60405180910390fd5b80600560008573ffffffffffffffffffffffffffffffffffffffff1673ffffffffffffffffffffffffffffffffffffffff16815260200190815260200160002060008473ffffffffffffffffffffffffffffffffffffffff1673ffffffffffffffffffffffffffffffffffffffff16815260200190815260200160002060006101000a81548160ff0219169083151502179055508173ffffffffffffffffffffffffffffffffffffffff168373ffffffffffffffffffffffffffffffffffffffff167f17307eab39ab6107e8899845ad3d59bd9653f200f220920489ca2b5937696c318360405161235f9190613093565b60405180910390a3505050565b6123868282604051806020016040528060008152506126f3565b5050565b612395848484611fa5565b6123a18484848461274e565b6123e0576040517f08c379a00000000000000000000000000000000000000000000000000000000081526004016123d7906144ca565b60405180910390fd5b50505050565b606060405180602001604052806000815250905090565b606060008203612444576040518060400160405280600181526020017f30000000000000000000000000000000000000000000000000000000000000008152509050612558565b600082905060005b6000821461247657808061245f906144ea565b915050600a8261246f9190614561565b915061244c565b60008167ffffffffffffffff81111561249257612491613489565b5b6040519080825280601f01601f1916602001820160405280156124c45781602001600182028036833780820191505090505b5090505b60008514612551576001826124dd91906143b8565b9150600a856124ec9190614592565b60306124f89190613f85565b60f81b81838151811061250e5761250d6137a6565b5b60200101907effffffffffffffffffffffffffffffffffffffffffffffffffffffffffffff1916908160001a905350600a8561254a9190614561565b94506124c8565b8093505050505b919050565b60007f80ac58cd000000000000000000000000000000000000000000000000000000007bffffffffffffffffffffffffffffffffffffffffffffffffffffffff1916827bffffffffffffffffffffffffffffffffffffffffffffffffffffffff1916148061262857507f5b5e139f000000000000000000000000000000000000000000000000000000007bffffffffffffffffffffffffffffffffffffffffffffffffffffffff1916827bffffffffffffffffffffffffffffffffffffffffffffffffffffffff1916145b806126385750612637826128d5565b5b9050919050565b600e600082815260200190815260200160002060009054906101000a900460ff16156126e3576000600e600083815260200190815260200160002060006101000a81548160ff02191690831515021790555060006012600d600084815260200190815260200160002054815481106126ba576126b96137a6565b5b906000526020600020906003020160000160146101000a81548160ff0219169083151502179055505b6126ee83838361293f565b505050565b6126fd8383612a51565b61270a600084848461274e565b612749576040517f08c379a0000000000000000000000000000000000000000000000000000000008152600401612740906144ca565b60405180910390fd5b505050565b600061276f8473ffffffffffffffffffffffffffffffffffffffff16612c1e565b156128c8578373ffffffffffffffffffffffffffffffffffffffff1663150b7a02612798611e06565b8786866040518563ffffffff1660e01b81526004016127ba9493929190614618565b6020604051808303816000875af19250505080156127f657506040513d601f19601f820116820180604052508101906127f39190614679565b60015b612878573d8060008114612826576040519150601f19603f3d011682016040523d82523d6000602084013e61282b565b606091505b506000815103612870576040517f08c379a0000000000000000000000000000000000000000000000000000000008152600401612867906144ca565b60405180910390fd5b805181602001fd5b63150b7a0260e01b7bffffffffffffffffffffffffffffffffffffffffffffffffffffffff1916817bffffffffffffffffffffffffffffffffffffffffffffffffffffffff1916149150506128cd565b600190505b949350505050565b60007f01ffc9a7000000000000000000000000000000000000000000000000000000007bffffffffffffffffffffffffffffffffffffffffffffffffffffffff1916827bffffffffffffffffffffffffffffffffffffffffffffffffffffffff1916149050919050565b61294a838383612c31565b600073ffffffffffffffffffffffffffffffffffffffff168373ffffffffffffffffffffffffffffffffffffffff160361298c5761298781612c36565b6129cb565b8173ffffffffffffffffffffffffffffffffffffffff168373ffffffffffffffffffffffffffffffffffffffff16146129ca576129c98382612c7f565b5b5b600073ffffffffffffffffffffffffffffffffffffffff168273ffffffffffffffffffffffffffffffffffffffff1603612a0d57612a0881612dec565b612a4c565b8273ffffffffffffffffffffffffffffffffffffffff168273ffffffffffffffffffffffffffffffffffffffff1614612a4b57612a4a8282612ebd565b5b5b505050565b600073ffffffffffffffffffffffffffffffffffffffff168273ffffffffffffffffffffffffffffffffffffffff1603612ac0576040517f08c379a0000000000000000000000000000000000000000000000000000000008152600401612ab7906146f2565b60405180910390fd5b612ac981611d9a565b15612b09576040517f08c379a0000000000000000000000000000000000000000000000000000000008152600401612b009061475e565b60405180910390fd5b612b156000838361263f565b6001600360008473ffffffffffffffffffffffffffffffffffffffff1673ffffffffffffffffffffffffffffffffffffffff1681526020019081526020016000206000828254612b659190613f85565b92505081905550816002600083815260200190815260200160002060006101000a81548173ffffffffffffffffffffffffffffffffffffffff021916908373ffffffffffffffffffffffffffffffffffffffff160217905550808273ffffffffffffffffffffffffffffffffffffffff16600073ffffffffffffffffffffffffffffffffffffffff167fddf252ad1be2c89b69c2b068fc378daa952ba7f163c4a11628f55a4df523b3ef60405160405180910390a45050565b600080823b905060008111915050919050565b505050565b6008805490506009600083815260200190815260200160002081905550600881908060018154018082558091505060019003906000526020600020016000909190919091505550565b60006001612c8c84610ee6565b612c9691906143b8565b9050600060076000848152602001908152602001600020549050818114612d7b576000600660008673ffffffffffffffffffffffffffffffffffffffff1673ffffffffffffffffffffffffffffffffffffffff168152602001908152602001600020600084815260200190815260200160002054905080600660008773ffffffffffffffffffffffffffffffffffffffff1673ffffffffffffffffffffffffffffffffffffffff168152602001908152602001600020600084815260200190815260200160002081905550816007600083815260200190815260200160002081905550505b6007600084815260200190815260200160002060009055600660008573ffffffffffffffffffffffffffffffffffffffff1673ffffffffffffffffffffffffffffffffffffffff16815260200190815260200160002060008381526020019081526020016000206000905550505050565b60006001600880549050612e0091906143b8565b9050600060096000848152602001908152602001600020549050600060088381548110612e3057612e2f6137a6565b5b906000526020600020015490508060088381548110612e5257612e516137a6565b5b906000526020600020018190555081600960008381526020019081526020016000208190555060096000858152602001908152602001600020600090556008805480612ea157612ea061477e565b5b6001900381819060005260206000200160009055905550505050565b6000612ec883610ee6565b905081600660008573ffffffffffffffffffffffffffffffffffffffff1673ffffffffffffffffffffffffffffffffffffffff168152602001908152602001600020600083815260200190815260200160002081905550806007600084815260200190815260200160002081905550505050565b828054612f48906138dc565b90600052602060002090601f016020900481019282612f6a5760008555612fb1565b82601f10612f8357805160ff1916838001178555612fb1565b82800160010185558215612fb1579182015b82811115612fb0578251825591602001919060010190612f95565b5b509050612fbe9190612fc2565b5090565b5b80821115612fdb576000816000905550600101612fc3565b5090565b6000604051905090565b600080fd5b600080fd5b60007fffffffff0000000000000000000000000000000000000000000000000000000082169050919050565b61302881612ff3565b811461303357600080fd5b50565b6000813590506130458161301f565b92915050565b60006020828403121561306157613060612fe9565b5b600061306f84828501613036565b91505092915050565b60008115159050919050565b61308d81613078565b82525050565b60006020820190506130a86000830184613084565b92915050565b6000819050919050565b6130c1816130ae565b81146130cc57600080fd5b50565b6000813590506130de816130b8565b92915050565b6000602082840312156130fa576130f9612fe9565b5b6000613108848285016130cf565b91505092915050565b600081519050919050565b600082825260208201905092915050565b60005b8381101561314b578082015181840152602081019050613130565b8381111561315a576000848401525b50505050565b6000601f19601f8301169050919050565b600061317c82613111565b613186818561311c565b935061319681856020860161312d565b61319f81613160565b840191505092915050565b600060208201905081810360008301526131c48184613171565b905092915050565b600073ffffffffffffffffffffffffffffffffffffffff82169050919050565b60006131f7826131cc565b9050919050565b613207816131ec565b82525050565b600060208201905061322260008301846131fe565b92915050565b613231816131ec565b811461323c57600080fd5b50565b60008135905061324e81613228565b92915050565b6000806040838503121561326b5761326a612fe9565b5b60006132798582860161323f565b925050602061328a858286016130cf565b9150509250929050565b61329d816130ae565b82525050565b60006020820190506132b86000830184613294565b92915050565b6000806000606084860312156132d7576132d6612fe9565b5b60006132e58682870161323f565b93505060206132f68682870161323f565b9250506040613307868287016130cf565b9150509250925092565b60006020828403121561332757613326612fe9565b5b60006133358482850161323f565b91505092915050565b6000806040838503121561335557613354612fe9565b5b6000613363858286016130cf565b9250506020613374858286016130cf565b9150509250929050565b600060408201905081810360008301526133988185613171565b90506133a76020830184613294565b9392505050565b60006040820190506133c360008301856131fe565b6133d06020830184613084565b9392505050565b60006133e2826131cc565b9050919050565b6133f2816133d7565b82525050565b600060208201905061340d60008301846133e9565b92915050565b61341c81613078565b811461342757600080fd5b50565b60008135905061343981613413565b92915050565b6000806040838503121561345657613455612fe9565b5b60006134648582860161323f565b92505060206134758582860161342a565b9150509250929050565b600080fd5b600080fd5b7f4e487b7100000000000000000000000000000000000000000000000000000000600052604160045260246000fd5b6134c182613160565b810181811067ffffffffffffffff821117156134e0576134df613489565b5b80604052505050565b60006134f3612fdf565b90506134ff82826134b8565b919050565b600067ffffffffffffffff82111561351f5761351e613489565b5b61352882613160565b9050602081019050919050565b82818337600083830152505050565b600061355761355284613504565b6134e9565b90508281526020810184848401111561357357613572613484565b5b61357e848285613535565b509392505050565b600082601f83011261359b5761359a61347f565b5b81356135ab848260208601613544565b91505092915050565b6000602082840312156135ca576135c9612fe9565b5b600082013567ffffffffffffffff8111156135e8576135e7612fee565b5b6135f484828501613586565b91505092915050565b600060808201905061361260008301876131fe565b61361f6020830186613084565b61362c6040830185613294565b6136396060830184613294565b95945050505050565b600067ffffffffffffffff82111561365d5761365c613489565b5b61366682613160565b9050602081019050919050565b600061368661368184613642565b6134e9565b9050828152602081018484840111156136a2576136a1613484565b5b6136ad848285613535565b509392505050565b600082601f8301126136ca576136c961347f565b5b81356136da848260208601613673565b91505092915050565b600080600080608085870312156136fd576136fc612fe9565b5b600061370b8782880161323f565b945050602061371c8782880161323f565b935050604061372d878288016130cf565b925050606085013567ffffffffffffffff81111561374e5761374d612fee565b5b61375a878288016136b5565b91505092959194509250565b6000806040838503121561377d5761377c612fe9565b5b600061378b8582860161323f565b925050602061379c8582860161323f565b9150509250929050565b7f4e487b7100000000000000000000000000000000000000000000000000000000600052603260045260246000fd5b7f53616c65206973206e6f74206163746976650000000000000000000000000000600082015250565b600061380b60128361311c565b9150613816826137d5565b602082019050919050565b6000602082019050818103600083015261383a816137fe565b9050919050565b7f796f7520617265206e6f74206f776e6572206f6620746869732073616c650000600082015250565b6000613877601e8361311c565b915061388282613841565b602082019050919050565b600060208201905081810360008301526138a68161386a565b9050919050565b7f4e487b7100000000000000000000000000000000000000000000000000000000600052602260045260246000fd5b600060028204905060018216806138f457607f821691505b602082108103613907576139066138ad565b5b50919050565b7f4552433732313a20617070726f76656420717565727920666f72206e6f6e657860008201527f697374656e7420746f6b656e0000000000000000000000000000000000000000602082015250565b6000613969602c8361311c565b91506139748261390d565b604082019050919050565b600060208201905081810360008301526139988161395c565b9050919050565b7f4552433732313a20617070726f76616c20746f2063757272656e74206f776e6560008201527f7200000000000000000000000000000000000000000000000000000000000000602082015250565b60006139fb60218361311c565b9150613a068261399f565b604082019050919050565b60006020820190508181036000830152613a2a816139ee565b9050919050565b7f4552433732313a20617070726f76652063616c6c6572206973206e6f74206f7760008201527f6e6572206e6f7220617070726f76656420666f7220616c6c0000000000000000602082015250565b6000613a8d60388361311c565b9150613a9882613a31565b604082019050919050565b60006020820190508181036000830152613abc81613a80565b9050919050565b7f4552433732313a207472616e736665722063616c6c6572206973206e6f74206f60008201527f776e6572206e6f7220617070726f766564000000000000000000000000000000602082015250565b6000613b1f60318361311c565b9150613b2a82613ac3565b604082019050919050565b60006020820190508181036000830152613b4e81613b12565b9050919050565b7f455243373231456e756d657261626c653a206f776e657220696e646578206f7560008201527f74206f6620626f756e6473000000000000000000000000000000000000000000602082015250565b6000613bb1602b8361311c565b9150613bbc82613b55565b604082019050919050565b60006020820190508181036000830152613be081613ba4565b9050919050565b7f455243373231456e756d657261626c653a20676c6f62616c20696e646578206f60008201527f7574206f6620626f756e64730000000000000000000000000000000000000000602082015250565b6000613c43602c8361311c565b9150613c4e82613be7565b604082019050919050565b60006020820190508181036000830152613c7281613c36565b9050919050565b7f4552433732313a206f776e657220717565727920666f72206e6f6e657869737460008201527f656e7420746f6b656e0000000000000000000000000000000000000000000000602082015250565b6000613cd560298361311c565b9150613ce082613c79565b604082019050919050565b60006020820190508181036000830152613d0481613cc8565b9050919050565b7f4552433732313a2062616c616e636520717565727920666f7220746865207a6560008201527f726f206164647265737300000000000000000000000000000000000000000000602082015250565b6000613d67602a8361311c565b9150613d7282613d0b565b604082019050919050565b60006020820190508181036000830152613d9681613d5a565b9050919050565b7f596f7520617265206e6f74206f776e6572206f66207468697320747265650000600082015250565b6000613dd3601e8361311c565b9150613dde82613d9d565b602082019050919050565b60006020820190508181036000830152613e0281613dc6565b9050919050565b6000604082019050613e1e60008301856131fe565b613e2b6020830184613294565b9392505050565b7f4f6e6c79206f776e6572206f662074686520736d61727420636f6e747261637460008201527f2063616e2063616c6c20746869732066756e6374696f6e203b28282828280000602082015250565b6000613e8e603e8361311c565b9150613e9982613e32565b604082019050919050565b60006020820190508181036000830152613ebd81613e81565b9050919050565b7f5a6d696e746f77616e6f206a757a2077737a7973746b6965204e465420647a6960008201527f656b756a656d79203a3333330000000000000000000000000000000000000000602082015250565b6000613f20602c8361311c565b9150613f2b82613ec4565b604082019050919050565b60006020820190508181036000830152613f4f81613f13565b9050919050565b7f4e487b7100000000000000000000000000000000000000000000000000000000600052601160045260246000fd5b6000613f90826130ae565b9150613f9b836130ae565b9250827fffffffffffffffffffffffffffffffffffffffffffffffffffffffffffffffff03821115613fd057613fcf613f56565b5b828201905092915050565b7f4552433732314d657461646174613a2055524920717565727920666f72206e6f60008201527f6e6578697374656e7420746f6b656e0000000000000000000000000000000000602082015250565b6000614037602f8361311c565b915061404282613fdb565b604082019050919050565b600060208201905081810360008301526140668161402a565b9050919050565b600081905092915050565b600061408382613111565b61408d818561406d565b935061409d81856020860161312d565b80840191505092915050565b60006140b58285614078565b91506140c18284614078565b91508190509392505050565b7f506572736f6e2077686f2070757420746861742074726565206f6e2073616c6560008201527f206973206e6f7420746869732074726565206f776e657220616e796d6f726500602082015250565b6000614129603f8361311c565b9150614134826140cd565b604082019050919050565b600060208201905081810360008301526141588161411c565b9050919050565b7f6e6f7420656e6f7567682066756e647300000000000000000000000000000000600082015250565b600061419560108361311c565b91506141a08261415f565b602082019050919050565b600060208201905081810360008301526141c481614188565b9050919050565b60006060820190506141e060008301866131fe565b6141ed60208301856131fe565b6141fa6040830184613294565b949350505050565b7f4552433732313a206f70657261746f7220717565727920666f72206e6f6e657860008201527f697374656e7420746f6b656e0000000000000000000000000000000000000000602082015250565b600061425e602c8361311c565b915061426982614202565b604082019050919050565b6000602082019050818103600083015261428d81614251565b9050919050565b7f4552433732313a207472616e73666572206f6620746f6b656e2074686174206960008201527f73206e6f74206f776e0000000000000000000000000000000000000000000000602082015250565b60006142f060298361311c565b91506142fb82614294565b604082019050919050565b6000602082019050818103600083015261431f816142e3565b9050919050565b7f4552433732313a207472616e7366657220746f20746865207a65726f2061646460008201527f7265737300000000000000000000000000000000000000000000000000000000602082015250565b600061438260248361311c565b915061438d82614326565b604082019050919050565b600060208201905081810360008301526143b181614375565b9050919050565b60006143c3826130ae565b91506143ce836130ae565b9250828210156143e1576143e0613f56565b5b828203905092915050565b7f4552433732313a20617070726f766520746f2063616c6c657200000000000000600082015250565b600061442260198361311c565b915061442d826143ec565b602082019050919050565b6000602082019050818103600083015261445181614415565b9050919050565b7f4552433732313a207472616e7366657220746f206e6f6e20455243373231526560008201527f63656976657220696d706c656d656e7465720000000000000000000000000000602082015250565b60006144b460328361311c565b91506144bf82614458565b604082019050919050565b600060208201905081810360008301526144e3816144a7565b9050919050565b60006144f5826130ae565b91507fffffffffffffffffffffffffffffffffffffffffffffffffffffffffffffffff820361452757614526613f56565b5b600182019050919050565b7f4e487b7100000000000000000000000000000000000000000000000000000000600052601260045260246000fd5b600061456c826130ae565b9150614577836130ae565b92508261458757614586614532565b5b828204905092915050565b600061459d826130ae565b91506145a8836130ae565b9250826145b8576145b7614532565b5b828206905092915050565b600081519050919050565b600082825260208201905092915050565b60006145ea826145c3565b6145f481856145ce565b935061460481856020860161312d565b61460d81613160565b840191505092915050565b600060808201905061462d60008301876131fe565b61463a60208301866131fe565b6146476040830185613294565b818103606083015261465981846145df565b905095945050505050565b6000815190506146738161301f565b92915050565b60006020828403121561468f5761468e612fe9565b5b600061469d84828501614664565b91505092915050565b7f4552433732313a206d696e7420746f20746865207a65726f2061646472657373600082015250565b60006146dc60208361311c565b91506146e7826146a6565b602082019050919050565b6000602082019050818103600083015261470b816146cf565b9050919050565b7f4552433732313a20746f6b656e20616c7265616479206d696e74656400000000600082015250565b6000614748601c8361311c565b915061475382614712565b602082019050919050565b600060208201905081810360008301526147778161473b565b9050919050565b7f4e487b7100000000000000000000000000000000000000000000000000000000600052603160045260246000fdfea264697066735822122077a40f32e991cafb82d3ed719da0670876ed6b98c3c4f49540f5b1d16c85732864736f6c634300080d0033",
  "immutableReferences": {},
  "source": "pragma solidity ^0.8.0;\r\n\r\nimport \"@openzeppelin/contracts/token/ERC721/extensions/ERC721Enumerable.sol\";\r\n\r\ncontract HelloWorld is ERC721,ERC721Enumerable{\r\n\r\n    event TreeRequested(address requesting);\r\n\r\n    event TreePutOnSale(address saler,uint TreeId);\r\n\r\n    event BoughtTreeOnSale(address buyer, address seller,uint saleId);\r\n\r\n    event SaleEnded(uint saleId);\r\n\r\n    bytes32 PROVANANCE_HASH = 0x0;\r\n\r\n    //id of the new token\r\n    uint public newTokenId;\r\n\r\n    address payable public  owner;\r\n\r\n    mapping(uint => uint) public tokenIdToSaleId;\r\n    mapping(uint => bool) public isOnSale;\r\n\r\n    modifier onlyOwner() {\r\n        require(msg.sender == owner, \"Only owner of the smart contract can call this function ;(((((\");\r\n        _;\r\n    }\r\n\r\n    modifier isTreeOwner(uint _treeId){\r\n        require(ownerOf(_treeId) == msg.sender, \"You are not owner of this tree\");\r\n        _;\r\n    }\r\n\r\n    modifier isSaleActive(uint _saleId){\r\n        require(sales[_saleId].active, \"Sale is not active\");\r\n        _;\r\n    }\r\n\r\n    modifier isUnderMax(){\r\n        require(newTokenId<100,\"Zmintowano juz wszystkie NFT dziekujemy :333\");\r\n        _;\r\n    }\r\n\r\n    struct Tree{\r\n        string genes;\r\n        uint256 birthdate;\r\n    }\r\n\r\n    struct Sale {\r\n        address owner;\r\n        bool active;\r\n        uint TreeId;\r\n        uint valueWei;\r\n    }\r\n\r\n    struct Request{\r\n        address requesting;\r\n        bool active;\r\n    }\r\n\r\n    mapping(address=>uint) public ownerToFunds;\r\n\r\n    Request[] public requests;\r\n\r\n    Tree[] public trees;\r\n\r\n    Sale[] public sales;\r\n\r\n    //Funkcja ktora pozwala adresowi ktory wywoluje ta funkcje przelac do siebie nalezne mu ETH\r\n    function withdraw() external{\r\n        uint toPay = ownerToFunds[msg.sender];\r\n        ownerToFunds[msg.sender] = 0;\r\n        payable(msg.sender).transfer(toPay);\r\n    }\r\n\r\n    //Osoba moze wystawic drzewko o danym Id po danej cenie jesli jest jego wlascicielem\r\n    function putTreeOnSale(uint _treeId, uint _valueWei) external isTreeOwner(_treeId){\r\n        Sale memory sale = Sale(msg.sender, true,_treeId,_valueWei);\r\n        isOnSale[_treeId] =true;\r\n        tokenIdToSaleId[_treeId] = sales.length;\r\n        sales.push(sale);\r\n        emit TreePutOnSale(msg.sender, _treeId);\r\n    }\r\n\r\n    //Mozesz kupic nft o danym Id po wystawionej cenie jesli jest na sprzedaz\r\n    function buyTree(uint _saleId) external payable isSaleActive(_saleId){\r\n        require(sales[_saleId].owner == ownerOf(sales[_saleId].TreeId), \"Person who put that tree on sale is not this tree owner anymore\");\r\n        require(sales[_saleId].valueWei <= msg.value, \"not enough funds\");\r\n        ownerToFunds[sales[_saleId].owner] += msg.value;\r\n        isOnSale[sales[_saleId].TreeId] = false;\r\n        sales[_saleId].active = false;\r\n        _transfer(sales[_saleId].owner,msg.sender , sales[_saleId].TreeId);\r\n        emit BoughtTreeOnSale(msg.sender, sales[_saleId].owner, _saleId);\r\n    }\r\n\r\n    //jesli jednak nie chcesz sprzedac swojego drzewka mozesz \"zdjac je z \"marketu\"\r\n    function endSale(uint _saleId) external isSaleActive(_saleId) {\r\n        require(sales[_saleId].owner == msg.sender, \"you are not owner of this sale\");\r\n        sales[_saleId].active = false;\r\n        isOnSale[sales[_saleId].TreeId] = false;\r\n        emit SaleEnded(_saleId);\r\n    }\r\n    //Uzytkownik prosi o utworzenie Nft dla niego i my je potem mintujemy\r\n    function requestTree() external payable isUnderMax(){\r\n        require(msg.value == 1 ether);\r\n        ownerToFunds[owner] += msg.value;\r\n        Request memory request = Request(msg.sender,true);\r\n        requests.push(request);\r\n        emit TreeRequested(msg.sender);\r\n    }\r\n\r\n    constructor() ERC721(\"Tree\", \"Tre\"){\r\n        owner = payable(msg.sender);\r\n        newTokenId = 0;\r\n    }\r\n    //owner smart contractu tworzy nft i wpisuje geny drzewka ktore ma byc dla uzytkownika ktory ostatni zrequestowal(nwm no pozniej lepiej napisze te komentarze)\r\n    function mintTree(string memory _genes) external onlyOwner() isUnderMax(){\r\n        _safeMint(requests[newTokenId].requesting, newTokenId);\r\n        Tree memory tree = Tree(_genes,block.timestamp);\r\n        trees.push(tree);\r\n        newTokenId += 1;\r\n    }\r\n\r\n    function _beforeTokenTransfer(address from, address to, uint256 tokenId)\r\n    internal\r\n    override(ERC721, ERC721Enumerable)\r\n    {\r\n        if(isOnSale[tokenId]){\r\n            isOnSale[tokenId] = false;\r\n            sales[tokenIdToSaleId[tokenId]].active = false;\r\n        }\r\n        super._beforeTokenTransfer(from, to, tokenId);\r\n    }\r\n\r\n    function supportsInterface(bytes4 interfaceId)\r\n    public\r\n    view\r\n    override(ERC721, ERC721Enumerable)\r\n    returns (bool)\r\n    {\r\n        return super.supportsInterface(interfaceId);\r\n    }\r\n\r\n\r\n}",
  "sourcePath": "C:\\Users\\wiki\\Desktop\\frontend\\src\\contracts\\test.sol",
  "compiler": {
    "name": "solc",
    "version": "0.8.13+commit.abaa5c0e.Emscripten.clang"
  },
  "schemaVersion": "3.4.4",
  "updatedAt": "2022-04-10T19:50:22.045Z",
  "networkType": "ethereum",
  "devdoc": {
    "kind": "dev",
    "methods": {
      "approve(address,uint256)": {
        "details": "See {IERC721-approve}."
      },
      "balanceOf(address)": {
        "details": "See {IERC721-balanceOf}."
      },
      "getApproved(uint256)": {
        "details": "See {IERC721-getApproved}."
      },
      "isApprovedForAll(address,address)": {
        "details": "See {IERC721-isApprovedForAll}."
      },
      "name()": {
        "details": "See {IERC721Metadata-name}."
      },
      "ownerOf(uint256)": {
        "details": "See {IERC721-ownerOf}."
      },
      "safeTransferFrom(address,address,uint256)": {
        "details": "See {IERC721-safeTransferFrom}."
      },
      "safeTransferFrom(address,address,uint256,bytes)": {
        "details": "See {IERC721-safeTransferFrom}."
      },
      "setApprovalForAll(address,bool)": {
        "details": "See {IERC721-setApprovalForAll}."
      },
      "symbol()": {
        "details": "See {IERC721Metadata-symbol}."
      },
      "tokenByIndex(uint256)": {
        "details": "See {IERC721Enumerable-tokenByIndex}."
      },
      "tokenOfOwnerByIndex(address,uint256)": {
        "details": "See {IERC721Enumerable-tokenOfOwnerByIndex}."
      },
      "tokenURI(uint256)": {
        "details": "See {IERC721Metadata-tokenURI}."
      },
      "totalSupply()": {
        "details": "See {IERC721Enumerable-totalSupply}."
      },
      "transferFrom(address,address,uint256)": {
        "details": "See {IERC721-transferFrom}."
      }
    },
    "version": 1
  },
  "userdoc": {
    "kind": "user",
    "methods": {},
    "version": 1
  }
}