{
  "contractName": "HelloWorld",
  "abi": [
    {
      "inputs": [],
      "stateMutability": "nonpayable",
      "type": "constructor"
    },
    {
      "anonymous": false,
      "inputs": [
        {
          "indexed": true,
          "internalType": "address",
          "name": "owner",
          "type": "address"
        },
        {
          "indexed": true,
          "internalType": "address",
          "name": "approved",
          "type": "address"
        },
        {
          "indexed": true,
          "internalType": "uint256",
          "name": "tokenId",
          "type": "uint256"
        }
      ],
      "name": "Approval",
      "type": "event"
    },
    {
      "anonymous": false,
      "inputs": [
        {
          "indexed": true,
          "internalType": "address",
          "name": "owner",
          "type": "address"
        },
        {
          "indexed": true,
          "internalType": "address",
          "name": "operator",
          "type": "address"
        },
        {
          "indexed": false,
          "internalType": "bool",
          "name": "approved",
          "type": "bool"
        }
      ],
      "name": "ApprovalForAll",
      "type": "event"
    },
    {
      "anonymous": false,
      "inputs": [
        {
          "indexed": true,
          "internalType": "address",
          "name": "from",
          "type": "address"
        },
        {
          "indexed": true,
          "internalType": "address",
          "name": "to",
          "type": "address"
        },
        {
          "indexed": true,
          "internalType": "uint256",
          "name": "tokenId",
          "type": "uint256"
        }
      ],
      "name": "Transfer",
      "type": "event"
    },
    {
      "inputs": [
        {
          "internalType": "address",
          "name": "to",
          "type": "address"
        },
        {
          "internalType": "uint256",
          "name": "tokenId",
          "type": "uint256"
        }
      ],
      "name": "approve",
      "outputs": [],
      "stateMutability": "nonpayable",
      "type": "function"
    },
    {
      "inputs": [
        {
          "internalType": "address",
          "name": "owner",
          "type": "address"
        }
      ],
      "name": "balanceOf",
      "outputs": [
        {
          "internalType": "uint256",
          "name": "",
          "type": "uint256"
        }
      ],
      "stateMutability": "view",
      "type": "function",
      "constant": true
    },
    {
      "inputs": [
        {
          "internalType": "uint256",
          "name": "tokenId",
          "type": "uint256"
        }
      ],
      "name": "getApproved",
      "outputs": [
        {
          "internalType": "address",
          "name": "",
          "type": "address"
        }
      ],
      "stateMutability": "view",
      "type": "function",
      "constant": true
    },
    {
      "inputs": [
        {
          "internalType": "address",
          "name": "owner",
          "type": "address"
        },
        {
          "internalType": "address",
          "name": "operator",
          "type": "address"
        }
      ],
      "name": "isApprovedForAll",
      "outputs": [
        {
          "internalType": "bool",
          "name": "",
          "type": "bool"
        }
      ],
      "stateMutability": "view",
      "type": "function",
      "constant": true
    },
    {
      "inputs": [
        {
          "internalType": "uint256",
          "name": "",
          "type": "uint256"
        }
      ],
      "name": "isOnSale",
      "outputs": [
        {
          "internalType": "bool",
          "name": "",
          "type": "bool"
        }
      ],
      "stateMutability": "view",
      "type": "function",
      "constant": true
    },
    {
      "inputs": [],
      "name": "name",
      "outputs": [
        {
          "internalType": "string",
          "name": "",
          "type": "string"
        }
      ],
      "stateMutability": "view",
      "type": "function",
      "constant": true
    },
    {
      "inputs": [],
      "name": "newTokenId",
      "outputs": [
        {
          "internalType": "uint256",
          "name": "",
          "type": "uint256"
        }
      ],
      "stateMutability": "view",
      "type": "function",
      "constant": true
    },
    {
      "inputs": [
        {
          "internalType": "uint256",
          "name": "tokenId",
          "type": "uint256"
        }
      ],
      "name": "ownerOf",
      "outputs": [
        {
          "internalType": "address",
          "name": "",
          "type": "address"
        }
      ],
      "stateMutability": "view",
      "type": "function",
      "constant": true
    },
    {
      "inputs": [
        {
          "internalType": "address",
          "name": "",
          "type": "address"
        }
      ],
      "name": "ownerToFunds",
      "outputs": [
        {
          "internalType": "uint256",
          "name": "",
          "type": "uint256"
        }
      ],
      "stateMutability": "view",
      "type": "function",
      "constant": true
    },
    {
      "inputs": [
        {
          "internalType": "uint256",
          "name": "",
          "type": "uint256"
        }
      ],
      "name": "requests",
      "outputs": [
        {
          "internalType": "address",
          "name": "requesting",
          "type": "address"
        },
        {
          "internalType": "bool",
          "name": "active",
          "type": "bool"
        }
      ],
      "stateMutability": "view",
      "type": "function",
      "constant": true
    },
    {
      "inputs": [
        {
          "internalType": "address",
          "name": "from",
          "type": "address"
        },
        {
          "internalType": "address",
          "name": "to",
          "type": "address"
        },
        {
          "internalType": "uint256",
          "name": "tokenId",
          "type": "uint256"
        }
      ],
      "name": "safeTransferFrom",
      "outputs": [],
      "stateMutability": "nonpayable",
      "type": "function"
    },
    {
      "inputs": [
        {
          "internalType": "address",
          "name": "from",
          "type": "address"
        },
        {
          "internalType": "address",
          "name": "to",
          "type": "address"
        },
        {
          "internalType": "uint256",
          "name": "tokenId",
          "type": "uint256"
        },
        {
          "internalType": "bytes",
          "name": "_data",
          "type": "bytes"
        }
      ],
      "name": "safeTransferFrom",
      "outputs": [],
      "stateMutability": "nonpayable",
      "type": "function"
    },
    {
      "inputs": [
        {
          "internalType": "uint256",
          "name": "",
          "type": "uint256"
        }
      ],
      "name": "sales",
      "outputs": [
        {
          "internalType": "address",
          "name": "owner",
          "type": "address"
        },
        {
          "internalType": "bool",
          "name": "active",
          "type": "bool"
        },
        {
          "internalType": "uint256",
          "name": "TreeId",
          "type": "uint256"
        },
        {
          "internalType": "uint256",
          "name": "valueWei",
          "type": "uint256"
        }
      ],
      "stateMutability": "view",
      "type": "function",
      "constant": true
    },
    {
      "inputs": [
        {
          "internalType": "address",
          "name": "operator",
          "type": "address"
        },
        {
          "internalType": "bool",
          "name": "approved",
          "type": "bool"
        }
      ],
      "name": "setApprovalForAll",
      "outputs": [],
      "stateMutability": "nonpayable",
      "type": "function"
    },
    {
      "inputs": [],
      "name": "symbol",
      "outputs": [
        {
          "internalType": "string",
          "name": "",
          "type": "string"
        }
      ],
      "stateMutability": "view",
      "type": "function",
      "constant": true
    },
    {
      "inputs": [
        {
          "internalType": "uint256",
          "name": "index",
          "type": "uint256"
        }
      ],
      "name": "tokenByIndex",
      "outputs": [
        {
          "internalType": "uint256",
          "name": "",
          "type": "uint256"
        }
      ],
      "stateMutability": "view",
      "type": "function",
      "constant": true
    },
    {
      "inputs": [
        {
          "internalType": "uint256",
          "name": "",
          "type": "uint256"
        }
      ],
      "name": "tokenIdToSaleId",
      "outputs": [
        {
          "internalType": "uint256",
          "name": "",
          "type": "uint256"
        }
      ],
      "stateMutability": "view",
      "type": "function",
      "constant": true
    },
    {
      "inputs": [
        {
          "internalType": "address",
          "name": "owner",
          "type": "address"
        },
        {
          "internalType": "uint256",
          "name": "index",
          "type": "uint256"
        }
      ],
      "name": "tokenOfOwnerByIndex",
      "outputs": [
        {
          "internalType": "uint256",
          "name": "",
          "type": "uint256"
        }
      ],
      "stateMutability": "view",
      "type": "function",
      "constant": true
    },
    {
      "inputs": [
        {
          "internalType": "uint256",
          "name": "tokenId",
          "type": "uint256"
        }
      ],
      "name": "tokenURI",
      "outputs": [
        {
          "internalType": "string",
          "name": "",
          "type": "string"
        }
      ],
      "stateMutability": "view",
      "type": "function",
      "constant": true
    },
    {
      "inputs": [],
      "name": "totalSupply",
      "outputs": [
        {
          "internalType": "uint256",
          "name": "",
          "type": "uint256"
        }
      ],
      "stateMutability": "view",
      "type": "function",
      "constant": true
    },
    {
      "inputs": [
        {
          "internalType": "address",
          "name": "from",
          "type": "address"
        },
        {
          "internalType": "address",
          "name": "to",
          "type": "address"
        },
        {
          "internalType": "uint256",
          "name": "tokenId",
          "type": "uint256"
        }
      ],
      "name": "transferFrom",
      "outputs": [],
      "stateMutability": "nonpayable",
      "type": "function"
    },
    {
      "inputs": [
        {
          "internalType": "uint256",
          "name": "",
          "type": "uint256"
        }
      ],
      "name": "trees",
      "outputs": [
        {
          "internalType": "string",
          "name": "genes",
          "type": "string"
        },
        {
          "internalType": "uint256",
          "name": "birthdate",
          "type": "uint256"
        }
      ],
      "stateMutability": "view",
      "type": "function",
      "constant": true
    },
    {
      "inputs": [],
      "name": "withdraw",
      "outputs": [],
      "stateMutability": "nonpayable",
      "type": "function"
    },
    {
      "inputs": [
        {
          "internalType": "uint256",
          "name": "_treeId",
          "type": "uint256"
        },
        {
          "internalType": "uint256",
          "name": "_valueWei",
          "type": "uint256"
        }
      ],
      "name": "putTreeOnSale",
      "outputs": [],
      "stateMutability": "nonpayable",
      "type": "function"
    },
    {
      "inputs": [
        {
          "internalType": "uint256",
          "name": "_saleId",
          "type": "uint256"
        }
      ],
      "name": "buyTree",
      "outputs": [],
      "stateMutability": "payable",
      "type": "function",
      "payable": true
    },
    {
      "inputs": [
        {
          "internalType": "uint256",
          "name": "_saleId",
          "type": "uint256"
        }
      ],
      "name": "endSale",
      "outputs": [],
      "stateMutability": "nonpayable",
      "type": "function"
    },
    {
      "inputs": [],
      "name": "requestTree",
      "outputs": [],
      "stateMutability": "payable",
      "type": "function",
      "payable": true
    },
    {
      "inputs": [
        {
          "internalType": "string",
          "name": "_genes",
          "type": "string"
        }
      ],
      "name": "mintTree",
      "outputs": [],
      "stateMutability": "nonpayable",
      "type": "function"
    },
    {
      "inputs": [
        {
          "internalType": "bytes4",
          "name": "interfaceId",
          "type": "bytes4"
        }
      ],
      "name": "supportsInterface",
      "outputs": [
        {
          "internalType": "bool",
          "name": "",
          "type": "bool"
        }
      ],
      "stateMutability": "view",
      "type": "function",
      "constant": true
    }
  ],
  "bytecode": "0x60806040526000801b600a553480156200001857600080fd5b506040518060400160405280600481526020017f54726565000000000000000000000000000000000000000000000000000000008152506040518060400160405280600381526020017f547265000000000000000000000000000000000000000000000000000000000081525081600090805190602001906200009d92919062000108565b508060019080519060200190620000b692919062000108565b50505033600c60006101000a81548173ffffffffffffffffffffffffffffffffffffffff021916908373ffffffffffffffffffffffffffffffffffffffff1602179055506000600b819055506200021c565b8280546200011690620001e7565b90600052602060002090601f0160209004810192826200013a576000855562000186565b82601f106200015557805160ff191683800117855562000186565b8280016001018555821562000186579182015b828111156200018557825182559160200191906001019062000168565b5b50905062000195919062000199565b5090565b5b80821115620001b45760008160009055506001016200019a565b5090565b7f4e487b7100000000000000000000000000000000000000000000000000000000600052602260045260246000fd5b600060028204905060018216806200020057607f821691505b602082108103620002165762000215620001b8565b5b50919050565b6145c4806200022c6000396000f3fe6080604052600436106101c25760003560e01c806379f3b481116100f7578063ac12cf4c11610095578063ca24138f11610064578063ca24138f14610680578063e985e9c51461069c578063efac5247146106d9578063f0f2805f14610716576101c2565b8063ac12cf4c146105d0578063b5f522f7146105da578063b88d4fde1461061a578063c87b56dd14610643576101c2565b8063957499b2116100d1578063957499b21461051657806395d89b4114610553578063a22cb4651461057e578063a9cf3bbb146105a7576101c2565b806379f3b481146104715780637a5080221461049a57806381d12c58146104d8576101c2565b80632f745c591161016457806342842e0e1161013e57806342842e0e146103915780634f6ccce7146103ba5780636352211e146103f757806370a0823114610434576101c2565b80632f745c5914610312578063340754ed1461034f5780633ccfd60b1461037a576101c2565b8063081812fc116101a0578063081812fc14610258578063095ea7b31461029557806318160ddd146102be57806323b872dd146102e9576101c2565b806301ffc9a7146101c757806304d1a8461461020457806306fdde031461022d575b600080fd5b3480156101d357600080fd5b506101ee60048036038101906101e99190612ec8565b610753565b6040516101fb9190612f10565b60405180910390f35b34801561021057600080fd5b5061022b60048036038101906102269190612f61565b610765565b005b34801561023957600080fd5b5061024261091e565b60405161024f9190613027565b60405180910390f35b34801561026457600080fd5b5061027f600480360381019061027a9190612f61565b6109b0565b60405161028c919061308a565b60405180910390f35b3480156102a157600080fd5b506102bc60048036038101906102b791906130d1565b610a35565b005b3480156102ca57600080fd5b506102d3610b4c565b6040516102e09190613120565b60405180910390f35b3480156102f557600080fd5b50610310600480360381019061030b919061313b565b610b59565b005b34801561031e57600080fd5b50610339600480360381019061033491906130d1565b610bb9565b6040516103469190613120565b60405180910390f35b34801561035b57600080fd5b50610364610c5e565b6040516103719190613120565b60405180910390f35b34801561038657600080fd5b5061038f610c64565b005b34801561039d57600080fd5b506103b860048036038101906103b3919061313b565b610d37565b005b3480156103c657600080fd5b506103e160048036038101906103dc9190612f61565b610d57565b6040516103ee9190613120565b60405180910390f35b34801561040357600080fd5b5061041e60048036038101906104199190612f61565b610dc8565b60405161042b919061308a565b60405180910390f35b34801561044057600080fd5b5061045b6004803603810190610456919061318e565b610e79565b6040516104689190613120565b60405180910390f35b34801561047d57600080fd5b50610498600480360381019061049391906131bb565b610f30565b005b3480156104a657600080fd5b506104c160048036038101906104bc9190612f61565b6110dd565b6040516104cf9291906131fb565b60405180910390f35b3480156104e457600080fd5b506104ff60048036038101906104fa9190612f61565b611199565b60405161050d92919061322b565b60405180910390f35b34801561052257600080fd5b5061053d60048036038101906105389190612f61565b6111f6565b60405161054a9190613120565b60405180910390f35b34801561055f57600080fd5b5061056861120e565b6040516105759190613027565b60405180910390f35b34801561058a57600080fd5b506105a560048036038101906105a09190613280565b6112a0565b005b3480156105b357600080fd5b506105ce60048036038101906105c991906133f5565b6112b6565b005b6105d8611466565b005b3480156105e657600080fd5b5061060160048036038101906105fc9190612f61565b6115fd565b604051610611949392919061343e565b60405180910390f35b34801561062657600080fd5b50610641600480360381019061063c9190613524565b61166a565b005b34801561064f57600080fd5b5061066a60048036038101906106659190612f61565b6116cc565b6040516106779190613027565b60405180910390f35b61069a60048036038101906106959190612f61565b611773565b005b3480156106a857600080fd5b506106c360048036038101906106be91906135a7565b611ad1565b6040516106d09190612f10565b60405180910390f35b3480156106e557600080fd5b5061070060048036038101906106fb919061318e565b611b65565b60405161070d9190613120565b60405180910390f35b34801561072257600080fd5b5061073d60048036038101906107389190612f61565b611b7d565b60405161074a9190612f10565b60405180910390f35b600061075e82611b9d565b9050919050565b806012818154811061077a576107796135e7565b5b906000526020600020906003020160000160149054906101000a900460ff166107d8576040517f08c379a00000000000000000000000000000000000000000000000000000000081526004016107cf90613662565b60405180910390fd5b3373ffffffffffffffffffffffffffffffffffffffff1660128381548110610803576108026135e7565b5b906000526020600020906003020160000160009054906101000a900473ffffffffffffffffffffffffffffffffffffffff1673ffffffffffffffffffffffffffffffffffffffff161461088b576040517f08c379a0000000000000000000000000000000000000000000000000000000008152600401610882906136ce565b60405180910390fd5b6000601283815481106108a1576108a06135e7565b5b906000526020600020906003020160000160146101000a81548160ff0219169083151502179055506000600e6000601285815481106108e3576108e26135e7565b5b906000526020600020906003020160010154815260200190815260200160002060006101000a81548160ff0219169083151502179055505050565b60606000805461092d9061371d565b80601f01602080910402602001604051908101604052809291908181526020018280546109599061371d565b80156109a65780601f1061097b576101008083540402835291602001916109a6565b820191906000526020600020905b81548152906001019060200180831161098957829003601f168201915b5050505050905090565b60006109bb82611c17565b6109fa576040517f08c379a00000000000000000000000000000000000000000000000000000000081526004016109f1906137c0565b60405180910390fd5b6004600083815260200190815260200160002060009054906101000a900473ffffffffffffffffffffffffffffffffffffffff169050919050565b6000610a4082610dc8565b90508073ffffffffffffffffffffffffffffffffffffffff168373ffffffffffffffffffffffffffffffffffffffff1603610ab0576040517f08c379a0000000000000000000000000000000000000000000000000000000008152600401610aa790613852565b60405180910390fd5b8073ffffffffffffffffffffffffffffffffffffffff16610acf611c83565b73ffffffffffffffffffffffffffffffffffffffff161480610afe5750610afd81610af8611c83565b611ad1565b5b610b3d576040517f08c379a0000000000000000000000000000000000000000000000000000000008152600401610b34906138e4565b60405180910390fd5b610b478383611c8b565b505050565b6000600880549050905090565b610b6a610b64611c83565b82611d44565b610ba9576040517f08c379a0000000000000000000000000000000000000000000000000000000008152600401610ba090613976565b60405180910390fd5b610bb4838383611e22565b505050565b6000610bc483610e79565b8210610c05576040517f08c379a0000000000000000000000000000000000000000000000000000000008152600401610bfc90613a08565b60405180910390fd5b600660008473ffffffffffffffffffffffffffffffffffffffff1673ffffffffffffffffffffffffffffffffffffffff168152602001908152602001600020600083815260200190815260200160002054905092915050565b600b5481565b6000600f60003373ffffffffffffffffffffffffffffffffffffffff1673ffffffffffffffffffffffffffffffffffffffff1681526020019081526020016000205490506000600f60003373ffffffffffffffffffffffffffffffffffffffff1673ffffffffffffffffffffffffffffffffffffffff168152602001908152602001600020819055503373ffffffffffffffffffffffffffffffffffffffff166108fc829081150290604051600060405180830381858888f19350505050158015610d33573d6000803e3d6000fd5b5050565b610d528383836040518060200160405280600081525061166a565b505050565b6000610d61610b4c565b8210610da2576040517f08c379a0000000000000000000000000000000000000000000000000000000008152600401610d9990613a9a565b60405180910390fd5b60088281548110610db657610db56135e7565b5b90600052602060002001549050919050565b6000806002600084815260200190815260200160002060009054906101000a900473ffffffffffffffffffffffffffffffffffffffff169050600073ffffffffffffffffffffffffffffffffffffffff168173ffffffffffffffffffffffffffffffffffffffff1603610e70576040517f08c379a0000000000000000000000000000000000000000000000000000000008152600401610e6790613b2c565b60405180910390fd5b80915050919050565b60008073ffffffffffffffffffffffffffffffffffffffff168273ffffffffffffffffffffffffffffffffffffffff1603610ee9576040517f08c379a0000000000000000000000000000000000000000000000000000000008152600401610ee090613bbe565b60405180910390fd5b600360008373ffffffffffffffffffffffffffffffffffffffff1673ffffffffffffffffffffffffffffffffffffffff168152602001908152602001600020549050919050565b813373ffffffffffffffffffffffffffffffffffffffff16610f5182610dc8565b73ffffffffffffffffffffffffffffffffffffffff1614610fa7576040517f08c379a0000000000000000000000000000000000000000000000000000000008152600401610f9e90613c2a565b60405180910390fd5b600060405180608001604052803373ffffffffffffffffffffffffffffffffffffffff1681526020016001151581526020018581526020018481525090506001600e600086815260200190815260200160002060006101000a81548160ff021916908315150217905550601280549050600d600086815260200190815260200160002081905550601281908060018154018082558091505060019003906000526020600020906003020160009091909190915060008201518160000160006101000a81548173ffffffffffffffffffffffffffffffffffffffff021916908373ffffffffffffffffffffffffffffffffffffffff16021790555060208201518160000160146101000a81548160ff0219169083151502179055506040820151816001015560608201518160020155505050505050565b601181815481106110ed57600080fd5b90600052602060002090600202016000915090508060000180546111109061371d565b80601f016020809104026020016040519081016040528092919081815260200182805461113c9061371d565b80156111895780601f1061115e57610100808354040283529160200191611189565b820191906000526020600020905b81548152906001019060200180831161116c57829003601f168201915b5050505050908060010154905082565b601081815481106111a957600080fd5b906000526020600020016000915090508060000160009054906101000a900473ffffffffffffffffffffffffffffffffffffffff16908060000160149054906101000a900460ff16905082565b600d6020528060005260406000206000915090505481565b60606001805461121d9061371d565b80601f01602080910402602001604051908101604052809291908181526020018280546112499061371d565b80156112965780601f1061126b57610100808354040283529160200191611296565b820191906000526020600020905b81548152906001019060200180831161127957829003601f168201915b5050505050905090565b6112b26112ab611c83565b838361207d565b5050565b600c60009054906101000a900473ffffffffffffffffffffffffffffffffffffffff1673ffffffffffffffffffffffffffffffffffffffff163373ffffffffffffffffffffffffffffffffffffffff1614611346576040517f08c379a000000000000000000000000000000000000000000000000000000000815260040161133d90613cbc565b60405180910390fd5b6064600b541061138b576040517f08c379a000000000000000000000000000000000000000000000000000000000815260040161138290613d4e565b60405180910390fd5b6113da6010600b54815481106113a4576113a36135e7565b5b9060005260206000200160000160009054906101000a900473ffffffffffffffffffffffffffffffffffffffff16600b546121e9565b600060405180604001604052808381526020014281525090506011819080600181540180825580915050600190039060005260206000209060020201600090919091909150600082015181600001908051906020019061143b929190612db9565b506020820151816001015550506001600b600082825461145b9190613d9d565b925050819055505050565b6064600b54106114ab576040517f08c379a00000000000000000000000000000000000000000000000000000000081526004016114a290613d4e565b60405180910390fd5b670de0b6b3a764000034146114bf57600080fd5b34600f6000600c60009054906101000a900473ffffffffffffffffffffffffffffffffffffffff1673ffffffffffffffffffffffffffffffffffffffff1673ffffffffffffffffffffffffffffffffffffffff16815260200190815260200160002060008282546115309190613d9d565b92505081905550600060405180604001604052803373ffffffffffffffffffffffffffffffffffffffff1681526020016001151581525090506010819080600181540180825580915050600190039060005260206000200160009091909190915060008201518160000160006101000a81548173ffffffffffffffffffffffffffffffffffffffff021916908373ffffffffffffffffffffffffffffffffffffffff16021790555060208201518160000160146101000a81548160ff021916908315150217905550505050565b6012818154811061160d57600080fd5b90600052602060002090600302016000915090508060000160009054906101000a900473ffffffffffffffffffffffffffffffffffffffff16908060000160149054906101000a900460ff16908060010154908060020154905084565b61167b611675611c83565b83611d44565b6116ba576040517f08c379a00000000000000000000000000000000000000000000000000000000081526004016116b190613976565b60405180910390fd5b6116c684848484612207565b50505050565b60606116d782611c17565b611716576040517f08c379a000000000000000000000000000000000000000000000000000000000815260040161170d90613e65565b60405180910390fd5b6000611720612263565b90506000815111611740576040518060200160405280600081525061176b565b8061174a8461227a565b60405160200161175b929190613ec1565b6040516020818303038152906040525b915050919050565b8060128181548110611788576117876135e7565b5b906000526020600020906003020160000160149054906101000a900460ff166117e6576040517f08c379a00000000000000000000000000000000000000000000000000000000081526004016117dd90613662565b60405180910390fd5b611814601283815481106117fd576117fc6135e7565b5b906000526020600020906003020160010154610dc8565b73ffffffffffffffffffffffffffffffffffffffff166012838154811061183e5761183d6135e7565b5b906000526020600020906003020160000160009054906101000a900473ffffffffffffffffffffffffffffffffffffffff1673ffffffffffffffffffffffffffffffffffffffff16146118c6576040517f08c379a00000000000000000000000000000000000000000000000000000000081526004016118bd90613f57565b60405180910390fd5b34601283815481106118db576118da6135e7565b5b906000526020600020906003020160020154111561192e576040517f08c379a000000000000000000000000000000000000000000000000000000000815260040161192590613fc3565b60405180910390fd5b34600f600060128581548110611947576119466135e7565b5b906000526020600020906003020160000160009054906101000a900473ffffffffffffffffffffffffffffffffffffffff1673ffffffffffffffffffffffffffffffffffffffff1673ffffffffffffffffffffffffffffffffffffffff16815260200190815260200160002060008282546119c29190613d9d565b925050819055506000600e6000601285815481106119e3576119e26135e7565b5b906000526020600020906003020160010154815260200190815260200160002060006101000a81548160ff021916908315150217905550600060128381548110611a3057611a2f6135e7565b5b906000526020600020906003020160000160146101000a81548160ff021916908315150217905550611acd60128381548110611a6f57611a6e6135e7565b5b906000526020600020906003020160000160009054906101000a900473ffffffffffffffffffffffffffffffffffffffff163360128581548110611ab657611ab56135e7565b5b906000526020600020906003020160010154611e22565b5050565b6000600560008473ffffffffffffffffffffffffffffffffffffffff1673ffffffffffffffffffffffffffffffffffffffff16815260200190815260200160002060008373ffffffffffffffffffffffffffffffffffffffff1673ffffffffffffffffffffffffffffffffffffffff16815260200190815260200160002060009054906101000a900460ff16905092915050565b600f6020528060005260406000206000915090505481565b600e6020528060005260406000206000915054906101000a900460ff1681565b60007f780e9d63000000000000000000000000000000000000000000000000000000007bffffffffffffffffffffffffffffffffffffffffffffffffffffffff1916827bffffffffffffffffffffffffffffffffffffffffffffffffffffffff19161480611c105750611c0f826123da565b5b9050919050565b60008073ffffffffffffffffffffffffffffffffffffffff166002600084815260200190815260200160002060009054906101000a900473ffffffffffffffffffffffffffffffffffffffff1673ffffffffffffffffffffffffffffffffffffffff1614159050919050565b600033905090565b816004600083815260200190815260200160002060006101000a81548173ffffffffffffffffffffffffffffffffffffffff021916908373ffffffffffffffffffffffffffffffffffffffff160217905550808273ffffffffffffffffffffffffffffffffffffffff16611cfe83610dc8565b73ffffffffffffffffffffffffffffffffffffffff167f8c5be1e5ebec7d5bd14f71427d1e84f3dd0314c0f7b2291e5b200ac8c7c3b92560405160405180910390a45050565b6000611d4f82611c17565b611d8e576040517f08c379a0000000000000000000000000000000000000000000000000000000008152600401611d8590614055565b60405180910390fd5b6000611d9983610dc8565b90508073ffffffffffffffffffffffffffffffffffffffff168473ffffffffffffffffffffffffffffffffffffffff161480611e0857508373ffffffffffffffffffffffffffffffffffffffff16611df0846109b0565b73ffffffffffffffffffffffffffffffffffffffff16145b80611e195750611e188185611ad1565b5b91505092915050565b8273ffffffffffffffffffffffffffffffffffffffff16611e4282610dc8565b73ffffffffffffffffffffffffffffffffffffffff1614611e98576040517f08c379a0000000000000000000000000000000000000000000000000000000008152600401611e8f906140e7565b60405180910390fd5b600073ffffffffffffffffffffffffffffffffffffffff168273ffffffffffffffffffffffffffffffffffffffff1603611f07576040517f08c379a0000000000000000000000000000000000000000000000000000000008152600401611efe90614179565b60405180910390fd5b611f128383836124bc565b611f1d600082611c8b565b6001600360008573ffffffffffffffffffffffffffffffffffffffff1673ffffffffffffffffffffffffffffffffffffffff1681526020019081526020016000206000828254611f6d9190614199565b925050819055506001600360008473ffffffffffffffffffffffffffffffffffffffff1673ffffffffffffffffffffffffffffffffffffffff1681526020019081526020016000206000828254611fc49190613d9d565b92505081905550816002600083815260200190815260200160002060006101000a81548173ffffffffffffffffffffffffffffffffffffffff021916908373ffffffffffffffffffffffffffffffffffffffff160217905550808273ffffffffffffffffffffffffffffffffffffffff168473ffffffffffffffffffffffffffffffffffffffff167fddf252ad1be2c89b69c2b068fc378daa952ba7f163c4a11628f55a4df523b3ef60405160405180910390a4505050565b8173ffffffffffffffffffffffffffffffffffffffff168373ffffffffffffffffffffffffffffffffffffffff16036120eb576040517f08c379a00000000000000000000000000000000000000000000000000000000081526004016120e290614219565b60405180910390fd5b80600560008573ffffffffffffffffffffffffffffffffffffffff1673ffffffffffffffffffffffffffffffffffffffff16815260200190815260200160002060008473ffffffffffffffffffffffffffffffffffffffff1673ffffffffffffffffffffffffffffffffffffffff16815260200190815260200160002060006101000a81548160ff0219169083151502179055508173ffffffffffffffffffffffffffffffffffffffff168373ffffffffffffffffffffffffffffffffffffffff167f17307eab39ab6107e8899845ad3d59bd9653f200f220920489ca2b5937696c31836040516121dc9190612f10565b60405180910390a3505050565b612203828260405180602001604052806000815250612570565b5050565b612212848484611e22565b61221e848484846125cb565b61225d576040517f08c379a0000000000000000000000000000000000000000000000000000000008152600401612254906142ab565b60405180910390fd5b50505050565b606060405180602001604052806000815250905090565b6060600082036122c1576040518060400160405280600181526020017f300000000000000000000000000000000000000000000000000000000000000081525090506123d5565b600082905060005b600082146122f35780806122dc906142cb565b915050600a826122ec9190614342565b91506122c9565b60008167ffffffffffffffff81111561230f5761230e6132ca565b5b6040519080825280601f01601f1916602001820160405280156123415781602001600182028036833780820191505090505b5090505b600085146123ce5760018261235a9190614199565b9150600a856123699190614373565b60306123759190613d9d565b60f81b81838151811061238b5761238a6135e7565b5b60200101907effffffffffffffffffffffffffffffffffffffffffffffffffffffffffffff1916908160001a905350600a856123c79190614342565b9450612345565b8093505050505b919050565b60007f80ac58cd000000000000000000000000000000000000000000000000000000007bffffffffffffffffffffffffffffffffffffffffffffffffffffffff1916827bffffffffffffffffffffffffffffffffffffffffffffffffffffffff191614806124a557507f5b5e139f000000000000000000000000000000000000000000000000000000007bffffffffffffffffffffffffffffffffffffffffffffffffffffffff1916827bffffffffffffffffffffffffffffffffffffffffffffffffffffffff1916145b806124b557506124b482612752565b5b9050919050565b600e600082815260200190815260200160002060009054906101000a900460ff1615612560576000600e600083815260200190815260200160002060006101000a81548160ff02191690831515021790555060006012600d60008481526020019081526020016000205481548110612537576125366135e7565b5b906000526020600020906003020160000160146101000a81548160ff0219169083151502179055505b61256b8383836127bc565b505050565b61257a83836128ce565b61258760008484846125cb565b6125c6576040517f08c379a00000000000000000000000000000000000000000000000000000000081526004016125bd906142ab565b60405180910390fd5b505050565b60006125ec8473ffffffffffffffffffffffffffffffffffffffff16612a9b565b15612745578373ffffffffffffffffffffffffffffffffffffffff1663150b7a02612615611c83565b8786866040518563ffffffff1660e01b815260040161263794939291906143f9565b6020604051808303816000875af192505050801561267357506040513d601f19601f82011682018060405250810190612670919061445a565b60015b6126f5573d80600081146126a3576040519150601f19603f3d011682016040523d82523d6000602084013e6126a8565b606091505b5060008151036126ed576040517f08c379a00000000000000000000000000000000000000000000000000000000081526004016126e4906142ab565b60405180910390fd5b805181602001fd5b63150b7a0260e01b7bffffffffffffffffffffffffffffffffffffffffffffffffffffffff1916817bffffffffffffffffffffffffffffffffffffffffffffffffffffffff19161491505061274a565b600190505b949350505050565b60007f01ffc9a7000000000000000000000000000000000000000000000000000000007bffffffffffffffffffffffffffffffffffffffffffffffffffffffff1916827bffffffffffffffffffffffffffffffffffffffffffffffffffffffff1916149050919050565b6127c7838383612aae565b600073ffffffffffffffffffffffffffffffffffffffff168373ffffffffffffffffffffffffffffffffffffffff16036128095761280481612ab3565b612848565b8173ffffffffffffffffffffffffffffffffffffffff168373ffffffffffffffffffffffffffffffffffffffff1614612847576128468382612afc565b5b5b600073ffffffffffffffffffffffffffffffffffffffff168273ffffffffffffffffffffffffffffffffffffffff160361288a5761288581612c69565b6128c9565b8273ffffffffffffffffffffffffffffffffffffffff168273ffffffffffffffffffffffffffffffffffffffff16146128c8576128c78282612d3a565b5b5b505050565b600073ffffffffffffffffffffffffffffffffffffffff168273ffffffffffffffffffffffffffffffffffffffff160361293d576040517f08c379a0000000000000000000000000000000000000000000000000000000008152600401612934906144d3565b60405180910390fd5b61294681611c17565b15612986576040517f08c379a000000000000000000000000000000000000000000000000000000000815260040161297d9061453f565b60405180910390fd5b612992600083836124bc565b6001600360008473ffffffffffffffffffffffffffffffffffffffff1673ffffffffffffffffffffffffffffffffffffffff16815260200190815260200160002060008282546129e29190613d9d565b92505081905550816002600083815260200190815260200160002060006101000a81548173ffffffffffffffffffffffffffffffffffffffff021916908373ffffffffffffffffffffffffffffffffffffffff160217905550808273ffffffffffffffffffffffffffffffffffffffff16600073ffffffffffffffffffffffffffffffffffffffff167fddf252ad1be2c89b69c2b068fc378daa952ba7f163c4a11628f55a4df523b3ef60405160405180910390a45050565b600080823b905060008111915050919050565b505050565b6008805490506009600083815260200190815260200160002081905550600881908060018154018082558091505060019003906000526020600020016000909190919091505550565b60006001612b0984610e79565b612b139190614199565b9050600060076000848152602001908152602001600020549050818114612bf8576000600660008673ffffffffffffffffffffffffffffffffffffffff1673ffffffffffffffffffffffffffffffffffffffff168152602001908152602001600020600084815260200190815260200160002054905080600660008773ffffffffffffffffffffffffffffffffffffffff1673ffffffffffffffffffffffffffffffffffffffff168152602001908152602001600020600084815260200190815260200160002081905550816007600083815260200190815260200160002081905550505b6007600084815260200190815260200160002060009055600660008573ffffffffffffffffffffffffffffffffffffffff1673ffffffffffffffffffffffffffffffffffffffff16815260200190815260200160002060008381526020019081526020016000206000905550505050565b60006001600880549050612c7d9190614199565b9050600060096000848152602001908152602001600020549050600060088381548110612cad57612cac6135e7565b5b906000526020600020015490508060088381548110612ccf57612cce6135e7565b5b906000526020600020018190555081600960008381526020019081526020016000208190555060096000858152602001908152602001600020600090556008805480612d1e57612d1d61455f565b5b6001900381819060005260206000200160009055905550505050565b6000612d4583610e79565b905081600660008573ffffffffffffffffffffffffffffffffffffffff1673ffffffffffffffffffffffffffffffffffffffff168152602001908152602001600020600083815260200190815260200160002081905550806007600084815260200190815260200160002081905550505050565b828054612dc59061371d565b90600052602060002090601f016020900481019282612de75760008555612e2e565b82601f10612e0057805160ff1916838001178555612e2e565b82800160010185558215612e2e579182015b82811115612e2d578251825591602001919060010190612e12565b5b509050612e3b9190612e3f565b5090565b5b80821115612e58576000816000905550600101612e40565b5090565b6000604051905090565b600080fd5b600080fd5b60007fffffffff0000000000000000000000000000000000000000000000000000000082169050919050565b612ea581612e70565b8114612eb057600080fd5b50565b600081359050612ec281612e9c565b92915050565b600060208284031215612ede57612edd612e66565b5b6000612eec84828501612eb3565b91505092915050565b60008115159050919050565b612f0a81612ef5565b82525050565b6000602082019050612f256000830184612f01565b92915050565b6000819050919050565b612f3e81612f2b565b8114612f4957600080fd5b50565b600081359050612f5b81612f35565b92915050565b600060208284031215612f7757612f76612e66565b5b6000612f8584828501612f4c565b91505092915050565b600081519050919050565b600082825260208201905092915050565b60005b83811015612fc8578082015181840152602081019050612fad565b83811115612fd7576000848401525b50505050565b6000601f19601f8301169050919050565b6000612ff982612f8e565b6130038185612f99565b9350613013818560208601612faa565b61301c81612fdd565b840191505092915050565b600060208201905081810360008301526130418184612fee565b905092915050565b600073ffffffffffffffffffffffffffffffffffffffff82169050919050565b600061307482613049565b9050919050565b61308481613069565b82525050565b600060208201905061309f600083018461307b565b92915050565b6130ae81613069565b81146130b957600080fd5b50565b6000813590506130cb816130a5565b92915050565b600080604083850312156130e8576130e7612e66565b5b60006130f6858286016130bc565b925050602061310785828601612f4c565b9150509250929050565b61311a81612f2b565b82525050565b60006020820190506131356000830184613111565b92915050565b60008060006060848603121561315457613153612e66565b5b6000613162868287016130bc565b9350506020613173868287016130bc565b925050604061318486828701612f4c565b9150509250925092565b6000602082840312156131a4576131a3612e66565b5b60006131b2848285016130bc565b91505092915050565b600080604083850312156131d2576131d1612e66565b5b60006131e085828601612f4c565b92505060206131f185828601612f4c565b9150509250929050565b600060408201905081810360008301526132158185612fee565b90506132246020830184613111565b9392505050565b6000604082019050613240600083018561307b565b61324d6020830184612f01565b9392505050565b61325d81612ef5565b811461326857600080fd5b50565b60008135905061327a81613254565b92915050565b6000806040838503121561329757613296612e66565b5b60006132a5858286016130bc565b92505060206132b68582860161326b565b9150509250929050565b600080fd5b600080fd5b7f4e487b7100000000000000000000000000000000000000000000000000000000600052604160045260246000fd5b61330282612fdd565b810181811067ffffffffffffffff82111715613321576133206132ca565b5b80604052505050565b6000613334612e5c565b905061334082826132f9565b919050565b600067ffffffffffffffff8211156133605761335f6132ca565b5b61336982612fdd565b9050602081019050919050565b82818337600083830152505050565b600061339861339384613345565b61332a565b9050828152602081018484840111156133b4576133b36132c5565b5b6133bf848285613376565b509392505050565b600082601f8301126133dc576133db6132c0565b5b81356133ec848260208601613385565b91505092915050565b60006020828403121561340b5761340a612e66565b5b600082013567ffffffffffffffff81111561342957613428612e6b565b5b613435848285016133c7565b91505092915050565b6000608082019050613453600083018761307b565b6134606020830186612f01565b61346d6040830185613111565b61347a6060830184613111565b95945050505050565b600067ffffffffffffffff82111561349e5761349d6132ca565b5b6134a782612fdd565b9050602081019050919050565b60006134c76134c284613483565b61332a565b9050828152602081018484840111156134e3576134e26132c5565b5b6134ee848285613376565b509392505050565b600082601f83011261350b5761350a6132c0565b5b813561351b8482602086016134b4565b91505092915050565b6000806000806080858703121561353e5761353d612e66565b5b600061354c878288016130bc565b945050602061355d878288016130bc565b935050604061356e87828801612f4c565b925050606085013567ffffffffffffffff81111561358f5761358e612e6b565b5b61359b878288016134f6565b91505092959194509250565b600080604083850312156135be576135bd612e66565b5b60006135cc858286016130bc565b92505060206135dd858286016130bc565b9150509250929050565b7f4e487b7100000000000000000000000000000000000000000000000000000000600052603260045260246000fd5b7f53616c65206973206e6f74206163746976650000000000000000000000000000600082015250565b600061364c601283612f99565b915061365782613616565b602082019050919050565b6000602082019050818103600083015261367b8161363f565b9050919050565b7f796f7520617265206e6f74206f776e6572206f6620746869732073616c650000600082015250565b60006136b8601e83612f99565b91506136c382613682565b602082019050919050565b600060208201905081810360008301526136e7816136ab565b9050919050565b7f4e487b7100000000000000000000000000000000000000000000000000000000600052602260045260246000fd5b6000600282049050600182168061373557607f821691505b602082108103613748576137476136ee565b5b50919050565b7f4552433732313a20617070726f76656420717565727920666f72206e6f6e657860008201527f697374656e7420746f6b656e0000000000000000000000000000000000000000602082015250565b60006137aa602c83612f99565b91506137b58261374e565b604082019050919050565b600060208201905081810360008301526137d98161379d565b9050919050565b7f4552433732313a20617070726f76616c20746f2063757272656e74206f776e6560008201527f7200000000000000000000000000000000000000000000000000000000000000602082015250565b600061383c602183612f99565b9150613847826137e0565b604082019050919050565b6000602082019050818103600083015261386b8161382f565b9050919050565b7f4552433732313a20617070726f76652063616c6c6572206973206e6f74206f7760008201527f6e6572206e6f7220617070726f76656420666f7220616c6c0000000000000000602082015250565b60006138ce603883612f99565b91506138d982613872565b604082019050919050565b600060208201905081810360008301526138fd816138c1565b9050919050565b7f4552433732313a207472616e736665722063616c6c6572206973206e6f74206f60008201527f776e6572206e6f7220617070726f766564000000000000000000000000000000602082015250565b6000613960603183612f99565b915061396b82613904565b604082019050919050565b6000602082019050818103600083015261398f81613953565b9050919050565b7f455243373231456e756d657261626c653a206f776e657220696e646578206f7560008201527f74206f6620626f756e6473000000000000000000000000000000000000000000602082015250565b60006139f2602b83612f99565b91506139fd82613996565b604082019050919050565b60006020820190508181036000830152613a21816139e5565b9050919050565b7f455243373231456e756d657261626c653a20676c6f62616c20696e646578206f60008201527f7574206f6620626f756e64730000000000000000000000000000000000000000602082015250565b6000613a84602c83612f99565b9150613a8f82613a28565b604082019050919050565b60006020820190508181036000830152613ab381613a77565b9050919050565b7f4552433732313a206f776e657220717565727920666f72206e6f6e657869737460008201527f656e7420746f6b656e0000000000000000000000000000000000000000000000602082015250565b6000613b16602983612f99565b9150613b2182613aba565b604082019050919050565b60006020820190508181036000830152613b4581613b09565b9050919050565b7f4552433732313a2062616c616e636520717565727920666f7220746865207a6560008201527f726f206164647265737300000000000000000000000000000000000000000000602082015250565b6000613ba8602a83612f99565b9150613bb382613b4c565b604082019050919050565b60006020820190508181036000830152613bd781613b9b565b9050919050565b7f596f7520617265206e6f74206f776e6572206f66207468697320747265650000600082015250565b6000613c14601e83612f99565b9150613c1f82613bde565b602082019050919050565b60006020820190508181036000830152613c4381613c07565b9050919050565b7f4f6e6c79206f776e6572206f662074686520736d61727420636f6e747261637460008201527f2063616e2063616c6c20746869732066756e6374696f6e203b28282828280000602082015250565b6000613ca6603e83612f99565b9150613cb182613c4a565b604082019050919050565b60006020820190508181036000830152613cd581613c99565b9050919050565b7f5a6d696e746f77616e6f206a757a2077737a7973746b6965204e465420647a6960008201527f656b756a656d79203a3333330000000000000000000000000000000000000000602082015250565b6000613d38602c83612f99565b9150613d4382613cdc565b604082019050919050565b60006020820190508181036000830152613d6781613d2b565b9050919050565b7f4e487b7100000000000000000000000000000000000000000000000000000000600052601160045260246000fd5b6000613da882612f2b565b9150613db383612f2b565b9250827fffffffffffffffffffffffffffffffffffffffffffffffffffffffffffffffff03821115613de857613de7613d6e565b5b828201905092915050565b7f4552433732314d657461646174613a2055524920717565727920666f72206e6f60008201527f6e6578697374656e7420746f6b656e0000000000000000000000000000000000602082015250565b6000613e4f602f83612f99565b9150613e5a82613df3565b604082019050919050565b60006020820190508181036000830152613e7e81613e42565b9050919050565b600081905092915050565b6000613e9b82612f8e565b613ea58185613e85565b9350613eb5818560208601612faa565b80840191505092915050565b6000613ecd8285613e90565b9150613ed98284613e90565b91508190509392505050565b7f506572736f6e2077686f2070757420746861742074726565206f6e2073616c6560008201527f206973206e6f7420746869732074726565206f776e657220616e796d6f726500602082015250565b6000613f41603f83612f99565b9150613f4c82613ee5565b604082019050919050565b60006020820190508181036000830152613f7081613f34565b9050919050565b7f6e6f7420656e6f7567682066756e647300000000000000000000000000000000600082015250565b6000613fad601083612f99565b9150613fb882613f77565b602082019050919050565b60006020820190508181036000830152613fdc81613fa0565b9050919050565b7f4552433732313a206f70657261746f7220717565727920666f72206e6f6e657860008201527f697374656e7420746f6b656e0000000000000000000000000000000000000000602082015250565b600061403f602c83612f99565b915061404a82613fe3565b604082019050919050565b6000602082019050818103600083015261406e81614032565b9050919050565b7f4552433732313a207472616e73666572206f6620746f6b656e2074686174206960008201527f73206e6f74206f776e0000000000000000000000000000000000000000000000602082015250565b60006140d1602983612f99565b91506140dc82614075565b604082019050919050565b60006020820190508181036000830152614100816140c4565b9050919050565b7f4552433732313a207472616e7366657220746f20746865207a65726f2061646460008201527f7265737300000000000000000000000000000000000000000000000000000000602082015250565b6000614163602483612f99565b915061416e82614107565b604082019050919050565b6000602082019050818103600083015261419281614156565b9050919050565b60006141a482612f2b565b91506141af83612f2b565b9250828210156141c2576141c1613d6e565b5b828203905092915050565b7f4552433732313a20617070726f766520746f2063616c6c657200000000000000600082015250565b6000614203601983612f99565b915061420e826141cd565b602082019050919050565b60006020820190508181036000830152614232816141f6565b9050919050565b7f4552433732313a207472616e7366657220746f206e6f6e20455243373231526560008201527f63656976657220696d706c656d656e7465720000000000000000000000000000602082015250565b6000614295603283612f99565b91506142a082614239565b604082019050919050565b600060208201905081810360008301526142c481614288565b9050919050565b60006142d682612f2b565b91507fffffffffffffffffffffffffffffffffffffffffffffffffffffffffffffffff820361430857614307613d6e565b5b600182019050919050565b7f4e487b7100000000000000000000000000000000000000000000000000000000600052601260045260246000fd5b600061434d82612f2b565b915061435883612f2b565b92508261436857614367614313565b5b828204905092915050565b600061437e82612f2b565b915061438983612f2b565b92508261439957614398614313565b5b828206905092915050565b600081519050919050565b600082825260208201905092915050565b60006143cb826143a4565b6143d581856143af565b93506143e5818560208601612faa565b6143ee81612fdd565b840191505092915050565b600060808201905061440e600083018761307b565b61441b602083018661307b565b6144286040830185613111565b818103606083015261443a81846143c0565b905095945050505050565b60008151905061445481612e9c565b92915050565b6000602082840312156144705761446f612e66565b5b600061447e84828501614445565b91505092915050565b7f4552433732313a206d696e7420746f20746865207a65726f2061646472657373600082015250565b60006144bd602083612f99565b91506144c882614487565b602082019050919050565b600060208201905081810360008301526144ec816144b0565b9050919050565b7f4552433732313a20746f6b656e20616c7265616479206d696e74656400000000600082015250565b6000614529601c83612f99565b9150614534826144f3565b602082019050919050565b600060208201905081810360008301526145588161451c565b9050919050565b7f4e487b7100000000000000000000000000000000000000000000000000000000600052603160045260246000fdfea26469706673582212205747169621bff36e050dd0132dd70793742252dd3c153d2a682f6b936477d5cb64736f6c634300080d0033",
  "immutableReferences": {},
  "source": "pragma solidity ^0.8.0;\r\n\r\nimport \"@openzeppelin/contracts/token/ERC721/extensions/ERC721Enumerable.sol\";\r\n\r\ncontract HelloWorld is ERC721,ERC721Enumerable{\r\n\r\n    bytes32 PROVANANCE_HASH = 0x0;\r\n\r\n    //id of the new token\r\n    uint public newTokenId;\r\n\r\n    address payable owner;\r\n\r\n    mapping(uint => uint) public tokenIdToSaleId;\r\n    mapping(uint => bool) public isOnSale;\r\n\r\n    modifier onlyOwner() {\r\n        require(msg.sender == owner, \"Only owner of the smart contract can call this function ;(((((\");\r\n        _;\r\n    }\r\n\r\n    modifier isTreeOwner(uint _treeId){\r\n        require(ownerOf(_treeId) == msg.sender, \"You are not owner of this tree\");\r\n        _;\r\n    }\r\n\r\n    modifier isSaleActive(uint _saleId){\r\n        require(sales[_saleId].active, \"Sale is not active\");\r\n        _;\r\n    }\r\n\r\n    modifier isUnderMax(){\r\n        require(newTokenId<100,\"Zmintowano juz wszystkie NFT dziekujemy :333\");\r\n        _;\r\n    }\r\n\r\n    struct Tree{\r\n        string genes;\r\n        uint256 birthdate;\r\n    }\r\n\r\n    struct Sale {\r\n        address owner;\r\n        bool active;\r\n        uint TreeId;\r\n        uint valueWei;\r\n    }\r\n\r\n    struct Request{\r\n        address requesting;\r\n        bool active;\r\n    }\r\n\r\n    mapping(address=>uint) public ownerToFunds;\r\n\r\n    Request[] public requests;\r\n\r\n    Tree[] public trees;\r\n\r\n    Sale[] public sales;\r\n\r\n    //Funkcja ktora pozwala adresowi ktory wywoluje ta funkcje przelac do siebie nalezne mu ETH\r\n    function withdraw() external{\r\n        uint toPay = ownerToFunds[msg.sender];\r\n        ownerToFunds[msg.sender] = 0;\r\n        payable(msg.sender).transfer(toPay);\r\n    }\r\n\r\n    //Osoba moze wystawic drzewko o danym Id po danej cenie jesli jest jego wlascicielem\r\n    function putTreeOnSale(uint _treeId, uint _valueWei) external isTreeOwner(_treeId){\r\n        Sale memory sale = Sale(msg.sender, true,_treeId,_valueWei);\r\n        isOnSale[_treeId] =true;\r\n        tokenIdToSaleId[_treeId] = sales.length;\r\n        sales.push(sale);\r\n    }\r\n\r\n    //Mozesz kupic nft o danym Id po wystawionej cenie jesli jest na sprzedaz\r\n    function buyTree(uint _saleId) external payable isSaleActive(_saleId){\r\n        require(sales[_saleId].owner == ownerOf(sales[_saleId].TreeId), \"Person who put that tree on sale is not this tree owner anymore\");\r\n        require(sales[_saleId].valueWei <= msg.value, \"not enough funds\");\r\n        ownerToFunds[sales[_saleId].owner] += msg.value;\r\n        isOnSale[sales[_saleId].TreeId] = false;\r\n        sales[_saleId].active = false;\r\n        _transfer(sales[_saleId].owner,msg.sender , sales[_saleId].TreeId);\r\n    }\r\n\r\n    //jesli jednak nie chcesz sprzedac swojego drzewka mozesz \"zdjac je z \"marketu\"\r\n    function endSale(uint _saleId) external isSaleActive(_saleId) {\r\n        require(sales[_saleId].owner == msg.sender, \"you are not owner of this sale\");\r\n        sales[_saleId].active = false;\r\n        isOnSale[sales[_saleId].TreeId] = false;\r\n    }\r\n    //Uzytkownik prosi o utworzenie Nft dla niego i my je potem mintujemy\r\n    function requestTree() external payable isUnderMax(){\r\n        require(msg.value == 1 ether);\r\n        ownerToFunds[owner] += msg.value;\r\n        Request memory request = Request(msg.sender,true);\r\n        requests.push(request);\r\n    }\r\n\r\n    constructor() ERC721(\"Tree\", \"Tre\"){\r\n        owner = payable(msg.sender);\r\n        newTokenId = 0;\r\n    }\r\n    //owner smart contractu tworzy nft i wpisuje geny drzewka ktore ma byc dla uzytkownika ktory ostatni zrequestowal(nwm no pozniej lepiej napisze te komentarze)\r\n    function mintTree(string memory _genes) external onlyOwner() isUnderMax(){\r\n        _safeMint(requests[newTokenId].requesting, newTokenId);\r\n        Tree memory tree = Tree(_genes,block.timestamp);\r\n        trees.push(tree);\r\n        newTokenId += 1;\r\n    }\r\n\r\n    function _beforeTokenTransfer(address from, address to, uint256 tokenId)\r\n    internal\r\n    override(ERC721, ERC721Enumerable)\r\n    {\r\n        if(isOnSale[tokenId]){\r\n            isOnSale[tokenId] = false;\r\n            sales[tokenIdToSaleId[tokenId]].active = false;\r\n        }\r\n        super._beforeTokenTransfer(from, to, tokenId);\r\n    }\r\n\r\n    function supportsInterface(bytes4 interfaceId)\r\n    public\r\n    view\r\n    override(ERC721, ERC721Enumerable)\r\n    returns (bool)\r\n    {\r\n        return super.supportsInterface(interfaceId);\r\n    }\r\n\r\n\r\n}",
  "sourcePath": "C:\\Users\\wiki\\Desktop\\frontend\\src\\contracts\\test.sol",
  "compiler": {
    "name": "solc",
    "version": "0.8.13+commit.abaa5c0e.Emscripten.clang"
  },
  "schemaVersion": "3.4.4",
  "updatedAt": "2022-03-30T19:42:39.215Z",
  "networkType": "ethereum",
  "devdoc": {
    "kind": "dev",
    "methods": {
      "approve(address,uint256)": {
        "details": "See {IERC721-approve}."
      },
      "balanceOf(address)": {
        "details": "See {IERC721-balanceOf}."
      },
      "getApproved(uint256)": {
        "details": "See {IERC721-getApproved}."
      },
      "isApprovedForAll(address,address)": {
        "details": "See {IERC721-isApprovedForAll}."
      },
      "name()": {
        "details": "See {IERC721Metadata-name}."
      },
      "ownerOf(uint256)": {
        "details": "See {IERC721-ownerOf}."
      },
      "safeTransferFrom(address,address,uint256)": {
        "details": "See {IERC721-safeTransferFrom}."
      },
      "safeTransferFrom(address,address,uint256,bytes)": {
        "details": "See {IERC721-safeTransferFrom}."
      },
      "setApprovalForAll(address,bool)": {
        "details": "See {IERC721-setApprovalForAll}."
      },
      "symbol()": {
        "details": "See {IERC721Metadata-symbol}."
      },
      "tokenByIndex(uint256)": {
        "details": "See {IERC721Enumerable-tokenByIndex}."
      },
      "tokenOfOwnerByIndex(address,uint256)": {
        "details": "See {IERC721Enumerable-tokenOfOwnerByIndex}."
      },
      "tokenURI(uint256)": {
        "details": "See {IERC721Metadata-tokenURI}."
      },
      "totalSupply()": {
        "details": "See {IERC721Enumerable-totalSupply}."
      },
      "transferFrom(address,address,uint256)": {
        "details": "See {IERC721-transferFrom}."
      }
    },
    "version": 1
  },
  "userdoc": {
    "kind": "user",
    "methods": {},
    "version": 1
  }
}