{
  "contractName": "Test",
  "abi": [
    {
      "inputs": [],
      "stateMutability": "nonpayable",
      "type": "constructor"
    },
    {
      "anonymous": false,
      "inputs": [
        {
          "indexed": true,
          "internalType": "address",
          "name": "owner",
          "type": "address"
        },
        {
          "indexed": true,
          "internalType": "address",
          "name": "approved",
          "type": "address"
        },
        {
          "indexed": true,
          "internalType": "uint256",
          "name": "tokenId",
          "type": "uint256"
        }
      ],
      "name": "Approval",
      "type": "event"
    },
    {
      "anonymous": false,
      "inputs": [
        {
          "indexed": true,
          "internalType": "address",
          "name": "owner",
          "type": "address"
        },
        {
          "indexed": true,
          "internalType": "address",
          "name": "operator",
          "type": "address"
        },
        {
          "indexed": false,
          "internalType": "bool",
          "name": "approved",
          "type": "bool"
        }
      ],
      "name": "ApprovalForAll",
      "type": "event"
    },
    {
      "anonymous": false,
      "inputs": [
        {
          "indexed": true,
          "internalType": "address",
          "name": "from",
          "type": "address"
        },
        {
          "indexed": true,
          "internalType": "address",
          "name": "to",
          "type": "address"
        },
        {
          "indexed": true,
          "internalType": "uint256",
          "name": "tokenId",
          "type": "uint256"
        }
      ],
      "name": "Transfer",
      "type": "event"
    },
    {
      "inputs": [
        {
          "internalType": "address",
          "name": "to",
          "type": "address"
        },
        {
          "internalType": "uint256",
          "name": "tokenId",
          "type": "uint256"
        }
      ],
      "name": "approve",
      "outputs": [],
      "stateMutability": "nonpayable",
      "type": "function"
    },
    {
      "inputs": [
        {
          "internalType": "address",
          "name": "owner",
          "type": "address"
        }
      ],
      "name": "balanceOf",
      "outputs": [
        {
          "internalType": "uint256",
          "name": "",
          "type": "uint256"
        }
      ],
      "stateMutability": "view",
      "type": "function",
      "constant": true
    },
    {
      "inputs": [
        {
          "internalType": "uint256",
          "name": "tokenId",
          "type": "uint256"
        }
      ],
      "name": "getApproved",
      "outputs": [
        {
          "internalType": "address",
          "name": "",
          "type": "address"
        }
      ],
      "stateMutability": "view",
      "type": "function",
      "constant": true
    },
    {
      "inputs": [
        {
          "internalType": "address",
          "name": "owner",
          "type": "address"
        },
        {
          "internalType": "address",
          "name": "operator",
          "type": "address"
        }
      ],
      "name": "isApprovedForAll",
      "outputs": [
        {
          "internalType": "bool",
          "name": "",
          "type": "bool"
        }
      ],
      "stateMutability": "view",
      "type": "function",
      "constant": true
    },
    {
      "inputs": [],
      "name": "name",
      "outputs": [
        {
          "internalType": "string",
          "name": "",
          "type": "string"
        }
      ],
      "stateMutability": "view",
      "type": "function",
      "constant": true
    },
    {
      "inputs": [],
      "name": "newTokenId",
      "outputs": [
        {
          "internalType": "uint256",
          "name": "",
          "type": "uint256"
        }
      ],
      "stateMutability": "view",
      "type": "function",
      "constant": true
    },
    {
      "inputs": [
        {
          "internalType": "uint256",
          "name": "tokenId",
          "type": "uint256"
        }
      ],
      "name": "ownerOf",
      "outputs": [
        {
          "internalType": "address",
          "name": "",
          "type": "address"
        }
      ],
      "stateMutability": "view",
      "type": "function",
      "constant": true
    },
    {
      "inputs": [
        {
          "internalType": "address",
          "name": "from",
          "type": "address"
        },
        {
          "internalType": "address",
          "name": "to",
          "type": "address"
        },
        {
          "internalType": "uint256",
          "name": "tokenId",
          "type": "uint256"
        }
      ],
      "name": "safeTransferFrom",
      "outputs": [],
      "stateMutability": "nonpayable",
      "type": "function"
    },
    {
      "inputs": [
        {
          "internalType": "address",
          "name": "from",
          "type": "address"
        },
        {
          "internalType": "address",
          "name": "to",
          "type": "address"
        },
        {
          "internalType": "uint256",
          "name": "tokenId",
          "type": "uint256"
        },
        {
          "internalType": "bytes",
          "name": "_data",
          "type": "bytes"
        }
      ],
      "name": "safeTransferFrom",
      "outputs": [],
      "stateMutability": "nonpayable",
      "type": "function"
    },
    {
      "inputs": [
        {
          "internalType": "address",
          "name": "operator",
          "type": "address"
        },
        {
          "internalType": "bool",
          "name": "approved",
          "type": "bool"
        }
      ],
      "name": "setApprovalForAll",
      "outputs": [],
      "stateMutability": "nonpayable",
      "type": "function"
    },
    {
      "inputs": [
        {
          "internalType": "bytes4",
          "name": "interfaceId",
          "type": "bytes4"
        }
      ],
      "name": "supportsInterface",
      "outputs": [
        {
          "internalType": "bool",
          "name": "",
          "type": "bool"
        }
      ],
      "stateMutability": "view",
      "type": "function",
      "constant": true
    },
    {
      "inputs": [],
      "name": "symbol",
      "outputs": [
        {
          "internalType": "string",
          "name": "",
          "type": "string"
        }
      ],
      "stateMutability": "view",
      "type": "function",
      "constant": true
    },
    {
      "inputs": [
        {
          "internalType": "uint256",
          "name": "index",
          "type": "uint256"
        }
      ],
      "name": "tokenByIndex",
      "outputs": [
        {
          "internalType": "uint256",
          "name": "",
          "type": "uint256"
        }
      ],
      "stateMutability": "view",
      "type": "function",
      "constant": true
    },
    {
      "inputs": [
        {
          "internalType": "address",
          "name": "owner",
          "type": "address"
        },
        {
          "internalType": "uint256",
          "name": "index",
          "type": "uint256"
        }
      ],
      "name": "tokenOfOwnerByIndex",
      "outputs": [
        {
          "internalType": "uint256",
          "name": "",
          "type": "uint256"
        }
      ],
      "stateMutability": "view",
      "type": "function",
      "constant": true
    },
    {
      "inputs": [
        {
          "internalType": "uint256",
          "name": "tokenId",
          "type": "uint256"
        }
      ],
      "name": "tokenURI",
      "outputs": [
        {
          "internalType": "string",
          "name": "",
          "type": "string"
        }
      ],
      "stateMutability": "view",
      "type": "function",
      "constant": true
    },
    {
      "inputs": [],
      "name": "totalSupply",
      "outputs": [
        {
          "internalType": "uint256",
          "name": "",
          "type": "uint256"
        }
      ],
      "stateMutability": "view",
      "type": "function",
      "constant": true
    },
    {
      "inputs": [
        {
          "internalType": "address",
          "name": "from",
          "type": "address"
        },
        {
          "internalType": "address",
          "name": "to",
          "type": "address"
        },
        {
          "internalType": "uint256",
          "name": "tokenId",
          "type": "uint256"
        }
      ],
      "name": "transferFrom",
      "outputs": [],
      "stateMutability": "nonpayable",
      "type": "function"
    },
    {
      "inputs": [
        {
          "internalType": "uint256",
          "name": "",
          "type": "uint256"
        }
      ],
      "name": "trees",
      "outputs": [
        {
          "components": [
            {
              "components": [
                {
                  "internalType": "int256",
                  "name": "x",
                  "type": "int256"
                },
                {
                  "internalType": "int256",
                  "name": "z",
                  "type": "int256"
                },
                {
                  "internalType": "uint256",
                  "name": "y",
                  "type": "uint256"
                }
              ],
              "internalType": "struct Test.Point[]",
              "name": "boughPoints",
              "type": "tuple[]"
            }
          ],
          "internalType": "struct Test.Bough",
          "name": "bough",
          "type": "tuple"
        }
      ],
      "stateMutability": "view",
      "type": "function",
      "constant": true
    },
    {
      "inputs": [],
      "name": "mintTree",
      "outputs": [],
      "stateMutability": "nonpayable",
      "type": "function"
    }
  ],
  "bytecode": "0x60806040523480156200001157600080fd5b506040518060400160405280600481526020017f54726565000000000000000000000000000000000000000000000000000000008152506040518060400160405280600381526020017f5472650000000000000000000000000000000000000000000000000000000000815250816000908051906020019062000096929190620000c0565b508060019080519060200190620000af929190620000c0565b5050506000600a81905550620001d5565b828054620000ce906200019f565b90600052602060002090601f016020900481019282620000f257600085556200013e565b82601f106200010d57805160ff19168380011785556200013e565b828001600101855582156200013e579182015b828111156200013d57825182559160200191906001019062000120565b5b5090506200014d919062000151565b5090565b5b808211156200016c57600081600090555060010162000152565b5090565b7f4e487b7100000000000000000000000000000000000000000000000000000000600052602260045260246000fd5b60006002820490506001821680620001b857607f821691505b60208210811415620001cf57620001ce62000170565b5b50919050565b61315880620001e56000396000f3fe608060405234801561001057600080fd5b50600436106101215760003560e01c80634f6ccce7116100ad57806395d89b411161007157806395d89b411461032e578063a22cb4651461034c578063b88d4fde14610368578063c87b56dd14610384578063e985e9c5146103b457610121565b80634f6ccce71461026457806361c05ab6146102945780636352211e1461029e57806370a08231146102ce5780637a508022146102fe57610121565b806318160ddd116100f457806318160ddd146101c057806323b872dd146101de5780632f745c59146101fa578063340754ed1461022a57806342842e0e1461024857610121565b806301ffc9a71461012657806306fdde0314610156578063081812fc14610174578063095ea7b3146101a4575b600080fd5b610140600480360381019061013b9190611e23565b6103e4565b60405161014d9190611e6b565b60405180910390f35b61015e61045e565b60405161016b9190611f1f565b60405180910390f35b61018e60048036038101906101899190611f77565b6104f0565b60405161019b9190611fe5565b60405180910390f35b6101be60048036038101906101b9919061202c565b610575565b005b6101c861068d565b6040516101d5919061207b565b60405180910390f35b6101f860048036038101906101f39190612096565b61069a565b005b610214600480360381019061020f919061202c565b6106fa565b604051610221919061207b565b60405180910390f35b61023261079f565b60405161023f919061207b565b60405180910390f35b610262600480360381019061025d9190612096565b6107a5565b005b61027e60048036038101906102799190611f77565b6107c5565b60405161028b919061207b565b60405180910390f35b61029c610836565b005b6102b860048036038101906102b39190611f77565b61085e565b6040516102c59190611fe5565b60405180910390f35b6102e860048036038101906102e391906120e9565b610910565b6040516102f5919061207b565b60405180910390f35b61031860048036038101906103139190611f77565b6109c8565b6040516103259190612259565b60405180910390f35b610336610a7d565b6040516103439190611f1f565b60405180910390f35b610366600480360381019061036191906122a7565b610b0f565b005b610382600480360381019061037d919061241c565b610b25565b005b61039e60048036038101906103999190611f77565b610b87565b6040516103ab9190611f1f565b60405180910390f35b6103ce60048036038101906103c9919061249f565b610c2e565b6040516103db9190611e6b565b60405180910390f35b60007f780e9d63000000000000000000000000000000000000000000000000000000007bffffffffffffffffffffffffffffffffffffffffffffffffffffffff1916827bffffffffffffffffffffffffffffffffffffffffffffffffffffffff19161480610457575061045682610cc2565b5b9050919050565b60606000805461046d9061250e565b80601f01602080910402602001604051908101604052809291908181526020018280546104999061250e565b80156104e65780601f106104bb576101008083540402835291602001916104e6565b820191906000526020600020905b8154815290600101906020018083116104c957829003601f168201915b5050505050905090565b60006104fb82610da4565b61053a576040517f08c379a0000000000000000000000000000000000000000000000000000000008152600401610531906125b2565b60405180910390fd5b6004600083815260200190815260200160002060009054906101000a900473ffffffffffffffffffffffffffffffffffffffff169050919050565b60006105808261085e565b90508073ffffffffffffffffffffffffffffffffffffffff168373ffffffffffffffffffffffffffffffffffffffff1614156105f1576040517f08c379a00000000000000000000000000000000000000000000000000000000081526004016105e890612644565b60405180910390fd5b8073ffffffffffffffffffffffffffffffffffffffff16610610610e10565b73ffffffffffffffffffffffffffffffffffffffff16148061063f575061063e81610639610e10565b610c2e565b5b61067e576040517f08c379a0000000000000000000000000000000000000000000000000000000008152600401610675906126d6565b60405180910390fd5b6106888383610e18565b505050565b6000600880549050905090565b6106ab6106a5610e10565b82610ed1565b6106ea576040517f08c379a00000000000000000000000000000000000000000000000000000000081526004016106e190612768565b60405180910390fd5b6106f5838383610faf565b505050565b600061070583610910565b8210610746576040517f08c379a000000000000000000000000000000000000000000000000000000000815260040161073d906127fa565b60405180910390fd5b600660008473ffffffffffffffffffffffffffffffffffffffff1673ffffffffffffffffffffffffffffffffffffffff168152602001908152602001600020600083815260200190815260200160002054905092915050565b600a5481565b6107c083838360405180602001604052806000815250610b25565b505050565b60006107cf61068d565b8210610810576040517f08c379a00000000000000000000000000000000000000000000000000000000081526004016108079061288c565b60405180910390fd5b60088281548110610824576108236128ac565b5b90600052602060002001549050919050565b61084233600a5461120b565b6001600a6000828254610855919061290a565b92505081905550565b6000806002600084815260200190815260200160002060009054906101000a900473ffffffffffffffffffffffffffffffffffffffff169050600073ffffffffffffffffffffffffffffffffffffffff168173ffffffffffffffffffffffffffffffffffffffff161415610907576040517f08c379a00000000000000000000000000000000000000000000000000000000081526004016108fe906129d2565b60405180910390fd5b80915050919050565b60008073ffffffffffffffffffffffffffffffffffffffff168273ffffffffffffffffffffffffffffffffffffffff161415610981576040517f08c379a000000000000000000000000000000000000000000000000000000000815260040161097890612a64565b60405180910390fd5b600360008373ffffffffffffffffffffffffffffffffffffffff1673ffffffffffffffffffffffffffffffffffffffff168152602001908152602001600020549050919050565b600b81815481106109d857600080fd5b90600052602060002090600202016000915090508060010160405180602001604052908160008201805480602002602001604051908101604052809291908181526020016000905b82821015610a705783829060005260206000209060030201604051806060016040529081600082015481526020016001820154815260200160028201548152505081526020019060010190610a20565b5050505081525050905081565b606060018054610a8c9061250e565b80601f0160208091040260200160405190810160405280929190818152602001828054610ab89061250e565b8015610b055780601f10610ada57610100808354040283529160200191610b05565b820191906000526020600020905b815481529060010190602001808311610ae857829003601f168201915b5050505050905090565b610b21610b1a610e10565b8383611229565b5050565b610b36610b30610e10565b83610ed1565b610b75576040517f08c379a0000000000000000000000000000000000000000000000000000000008152600401610b6c90612768565b60405180910390fd5b610b8184848484611396565b50505050565b6060610b9282610da4565b610bd1576040517f08c379a0000000000000000000000000000000000000000000000000000000008152600401610bc890612af6565b60405180910390fd5b6000610bdb6113f2565b90506000815111610bfb5760405180602001604052806000815250610c26565b80610c0584611409565b604051602001610c16929190612b52565b6040516020818303038152906040525b915050919050565b6000600560008473ffffffffffffffffffffffffffffffffffffffff1673ffffffffffffffffffffffffffffffffffffffff16815260200190815260200160002060008373ffffffffffffffffffffffffffffffffffffffff1673ffffffffffffffffffffffffffffffffffffffff16815260200190815260200160002060009054906101000a900460ff16905092915050565b60007f80ac58cd000000000000000000000000000000000000000000000000000000007bffffffffffffffffffffffffffffffffffffffffffffffffffffffff1916827bffffffffffffffffffffffffffffffffffffffffffffffffffffffff19161480610d8d57507f5b5e139f000000000000000000000000000000000000000000000000000000007bffffffffffffffffffffffffffffffffffffffffffffffffffffffff1916827bffffffffffffffffffffffffffffffffffffffffffffffffffffffff1916145b80610d9d5750610d9c8261156a565b5b9050919050565b60008073ffffffffffffffffffffffffffffffffffffffff166002600084815260200190815260200160002060009054906101000a900473ffffffffffffffffffffffffffffffffffffffff1673ffffffffffffffffffffffffffffffffffffffff1614159050919050565b600033905090565b816004600083815260200190815260200160002060006101000a81548173ffffffffffffffffffffffffffffffffffffffff021916908373ffffffffffffffffffffffffffffffffffffffff160217905550808273ffffffffffffffffffffffffffffffffffffffff16610e8b8361085e565b73ffffffffffffffffffffffffffffffffffffffff167f8c5be1e5ebec7d5bd14f71427d1e84f3dd0314c0f7b2291e5b200ac8c7c3b92560405160405180910390a45050565b6000610edc82610da4565b610f1b576040517f08c379a0000000000000000000000000000000000000000000000000000000008152600401610f1290612be8565b60405180910390fd5b6000610f268361085e565b90508073ffffffffffffffffffffffffffffffffffffffff168473ffffffffffffffffffffffffffffffffffffffff161480610f9557508373ffffffffffffffffffffffffffffffffffffffff16610f7d846104f0565b73ffffffffffffffffffffffffffffffffffffffff16145b80610fa65750610fa58185610c2e565b5b91505092915050565b8273ffffffffffffffffffffffffffffffffffffffff16610fcf8261085e565b73ffffffffffffffffffffffffffffffffffffffff1614611025576040517f08c379a000000000000000000000000000000000000000000000000000000000815260040161101c90612c7a565b60405180910390fd5b600073ffffffffffffffffffffffffffffffffffffffff168273ffffffffffffffffffffffffffffffffffffffff161415611095576040517f08c379a000000000000000000000000000000000000000000000000000000000815260040161108c90612d0c565b60405180910390fd5b6110a08383836115d4565b6110ab600082610e18565b6001600360008573ffffffffffffffffffffffffffffffffffffffff1673ffffffffffffffffffffffffffffffffffffffff16815260200190815260200160002060008282546110fb9190612d2c565b925050819055506001600360008473ffffffffffffffffffffffffffffffffffffffff1673ffffffffffffffffffffffffffffffffffffffff1681526020019081526020016000206000828254611152919061290a565b92505081905550816002600083815260200190815260200160002060006101000a81548173ffffffffffffffffffffffffffffffffffffffff021916908373ffffffffffffffffffffffffffffffffffffffff160217905550808273ffffffffffffffffffffffffffffffffffffffff168473ffffffffffffffffffffffffffffffffffffffff167fddf252ad1be2c89b69c2b068fc378daa952ba7f163c4a11628f55a4df523b3ef60405160405180910390a4505050565b6112258282604051806020016040528060008152506116e8565b5050565b8173ffffffffffffffffffffffffffffffffffffffff168373ffffffffffffffffffffffffffffffffffffffff161415611298576040517f08c379a000000000000000000000000000000000000000000000000000000000815260040161128f90612dac565b60405180910390fd5b80600560008573ffffffffffffffffffffffffffffffffffffffff1673ffffffffffffffffffffffffffffffffffffffff16815260200190815260200160002060008473ffffffffffffffffffffffffffffffffffffffff1673ffffffffffffffffffffffffffffffffffffffff16815260200190815260200160002060006101000a81548160ff0219169083151502179055508173ffffffffffffffffffffffffffffffffffffffff168373ffffffffffffffffffffffffffffffffffffffff167f17307eab39ab6107e8899845ad3d59bd9653f200f220920489ca2b5937696c31836040516113899190611e6b565b60405180910390a3505050565b6113a1848484610faf565b6113ad84848484611743565b6113ec576040517f08c379a00000000000000000000000000000000000000000000000000000000081526004016113e390612e3e565b60405180910390fd5b50505050565b606060405180602001604052806000815250905090565b60606000821415611451576040518060400160405280600181526020017f30000000000000000000000000000000000000000000000000000000000000008152509050611565565b600082905060005b6000821461148357808061146c90612e5e565b915050600a8261147c9190612ed6565b9150611459565b60008167ffffffffffffffff81111561149f5761149e6122f1565b5b6040519080825280601f01601f1916602001820160405280156114d15781602001600182028036833780820191505090505b5090505b6000851461155e576001826114ea9190612d2c565b9150600a856114f99190612f07565b6030611505919061290a565b60f81b81838151811061151b5761151a6128ac565b5b60200101907effffffffffffffffffffffffffffffffffffffffffffffffffffffffffffff1916908160001a905350600a856115579190612ed6565b94506114d5565b8093505050505b919050565b60007f01ffc9a7000000000000000000000000000000000000000000000000000000007bffffffffffffffffffffffffffffffffffffffffffffffffffffffff1916827bffffffffffffffffffffffffffffffffffffffffffffffffffffffff1916149050919050565b6115df8383836118cb565b600073ffffffffffffffffffffffffffffffffffffffff168373ffffffffffffffffffffffffffffffffffffffff1614156116225761161d816118d0565b611661565b8173ffffffffffffffffffffffffffffffffffffffff168373ffffffffffffffffffffffffffffffffffffffff16146116605761165f8382611919565b5b5b600073ffffffffffffffffffffffffffffffffffffffff168273ffffffffffffffffffffffffffffffffffffffff1614156116a45761169f81611a86565b6116e3565b8273ffffffffffffffffffffffffffffffffffffffff168273ffffffffffffffffffffffffffffffffffffffff16146116e2576116e18282611b57565b5b5b505050565b6116f28383611bd6565b6116ff6000848484611743565b61173e576040517f08c379a000000000000000000000000000000000000000000000000000000000815260040161173590612e3e565b60405180910390fd5b505050565b60006117648473ffffffffffffffffffffffffffffffffffffffff16611da4565b156118be578373ffffffffffffffffffffffffffffffffffffffff1663150b7a0261178d610e10565b8786866040518563ffffffff1660e01b81526004016117af9493929190612f8d565b6020604051808303816000875af19250505080156117eb57506040513d601f19601f820116820180604052508101906117e89190612fee565b60015b61186e573d806000811461181b576040519150601f19603f3d011682016040523d82523d6000602084013e611820565b606091505b50600081511415611866576040517f08c379a000000000000000000000000000000000000000000000000000000000815260040161185d90612e3e565b60405180910390fd5b805181602001fd5b63150b7a0260e01b7bffffffffffffffffffffffffffffffffffffffffffffffffffffffff1916817bffffffffffffffffffffffffffffffffffffffffffffffffffffffff1916149150506118c3565b600190505b949350505050565b505050565b6008805490506009600083815260200190815260200160002081905550600881908060018154018082558091505060019003906000526020600020016000909190919091505550565b6000600161192684610910565b6119309190612d2c565b9050600060076000848152602001908152602001600020549050818114611a15576000600660008673ffffffffffffffffffffffffffffffffffffffff1673ffffffffffffffffffffffffffffffffffffffff168152602001908152602001600020600084815260200190815260200160002054905080600660008773ffffffffffffffffffffffffffffffffffffffff1673ffffffffffffffffffffffffffffffffffffffff168152602001908152602001600020600084815260200190815260200160002081905550816007600083815260200190815260200160002081905550505b6007600084815260200190815260200160002060009055600660008573ffffffffffffffffffffffffffffffffffffffff1673ffffffffffffffffffffffffffffffffffffffff16815260200190815260200160002060008381526020019081526020016000206000905550505050565b60006001600880549050611a9a9190612d2c565b9050600060096000848152602001908152602001600020549050600060088381548110611aca57611ac96128ac565b5b906000526020600020015490508060088381548110611aec57611aeb6128ac565b5b906000526020600020018190555081600960008381526020019081526020016000208190555060096000858152602001908152602001600020600090556008805480611b3b57611b3a61301b565b5b6001900381819060005260206000200160009055905550505050565b6000611b6283610910565b905081600660008573ffffffffffffffffffffffffffffffffffffffff1673ffffffffffffffffffffffffffffffffffffffff168152602001908152602001600020600083815260200190815260200160002081905550806007600084815260200190815260200160002081905550505050565b600073ffffffffffffffffffffffffffffffffffffffff168273ffffffffffffffffffffffffffffffffffffffff161415611c46576040517f08c379a0000000000000000000000000000000000000000000000000000000008152600401611c3d90613096565b60405180910390fd5b611c4f81610da4565b15611c8f576040517f08c379a0000000000000000000000000000000000000000000000000000000008152600401611c8690613102565b60405180910390fd5b611c9b600083836115d4565b6001600360008473ffffffffffffffffffffffffffffffffffffffff1673ffffffffffffffffffffffffffffffffffffffff1681526020019081526020016000206000828254611ceb919061290a565b92505081905550816002600083815260200190815260200160002060006101000a81548173ffffffffffffffffffffffffffffffffffffffff021916908373ffffffffffffffffffffffffffffffffffffffff160217905550808273ffffffffffffffffffffffffffffffffffffffff16600073ffffffffffffffffffffffffffffffffffffffff167fddf252ad1be2c89b69c2b068fc378daa952ba7f163c4a11628f55a4df523b3ef60405160405180910390a45050565b600080823b905060008111915050919050565b6000604051905090565b600080fd5b600080fd5b60007fffffffff0000000000000000000000000000000000000000000000000000000082169050919050565b611e0081611dcb565b8114611e0b57600080fd5b50565b600081359050611e1d81611df7565b92915050565b600060208284031215611e3957611e38611dc1565b5b6000611e4784828501611e0e565b91505092915050565b60008115159050919050565b611e6581611e50565b82525050565b6000602082019050611e806000830184611e5c565b92915050565b600081519050919050565b600082825260208201905092915050565b60005b83811015611ec0578082015181840152602081019050611ea5565b83811115611ecf576000848401525b50505050565b6000601f19601f8301169050919050565b6000611ef182611e86565b611efb8185611e91565b9350611f0b818560208601611ea2565b611f1481611ed5565b840191505092915050565b60006020820190508181036000830152611f398184611ee6565b905092915050565b6000819050919050565b611f5481611f41565b8114611f5f57600080fd5b50565b600081359050611f7181611f4b565b92915050565b600060208284031215611f8d57611f8c611dc1565b5b6000611f9b84828501611f62565b91505092915050565b600073ffffffffffffffffffffffffffffffffffffffff82169050919050565b6000611fcf82611fa4565b9050919050565b611fdf81611fc4565b82525050565b6000602082019050611ffa6000830184611fd6565b92915050565b61200981611fc4565b811461201457600080fd5b50565b60008135905061202681612000565b92915050565b6000806040838503121561204357612042611dc1565b5b600061205185828601612017565b925050602061206285828601611f62565b9150509250929050565b61207581611f41565b82525050565b6000602082019050612090600083018461206c565b92915050565b6000806000606084860312156120af576120ae611dc1565b5b60006120bd86828701612017565b93505060206120ce86828701612017565b92505060406120df86828701611f62565b9150509250925092565b6000602082840312156120ff576120fe611dc1565b5b600061210d84828501612017565b91505092915050565b600081519050919050565b600082825260208201905092915050565b6000819050602082019050919050565b6000819050919050565b61215581612142565b82525050565b61216481611f41565b82525050565b606082016000820151612180600085018261214c565b506020820151612193602085018261214c565b5060408201516121a6604085018261215b565b50505050565b60006121b8838361216a565b60608301905092915050565b6000602082019050919050565b60006121dc82612116565b6121e68185612121565b93506121f183612132565b8060005b8381101561222257815161220988826121ac565b9750612214836121c4565b9250506001810190506121f5565b5085935050505092915050565b6000602083016000830151848203600086015261224c82826121d1565b9150508091505092915050565b60006020820190508181036000830152612273818461222f565b905092915050565b61228481611e50565b811461228f57600080fd5b50565b6000813590506122a18161227b565b92915050565b600080604083850312156122be576122bd611dc1565b5b60006122cc85828601612017565b92505060206122dd85828601612292565b9150509250929050565b600080fd5b600080fd5b7f4e487b7100000000000000000000000000000000000000000000000000000000600052604160045260246000fd5b61232982611ed5565b810181811067ffffffffffffffff82111715612348576123476122f1565b5b80604052505050565b600061235b611db7565b90506123678282612320565b919050565b600067ffffffffffffffff821115612387576123866122f1565b5b61239082611ed5565b9050602081019050919050565b82818337600083830152505050565b60006123bf6123ba8461236c565b612351565b9050828152602081018484840111156123db576123da6122ec565b5b6123e684828561239d565b509392505050565b600082601f830112612403576124026122e7565b5b81356124138482602086016123ac565b91505092915050565b6000806000806080858703121561243657612435611dc1565b5b600061244487828801612017565b945050602061245587828801612017565b935050604061246687828801611f62565b925050606085013567ffffffffffffffff81111561248757612486611dc6565b5b612493878288016123ee565b91505092959194509250565b600080604083850312156124b6576124b5611dc1565b5b60006124c485828601612017565b92505060206124d585828601612017565b9150509250929050565b7f4e487b7100000000000000000000000000000000000000000000000000000000600052602260045260246000fd5b6000600282049050600182168061252657607f821691505b6020821081141561253a576125396124df565b5b50919050565b7f4552433732313a20617070726f76656420717565727920666f72206e6f6e657860008201527f697374656e7420746f6b656e0000000000000000000000000000000000000000602082015250565b600061259c602c83611e91565b91506125a782612540565b604082019050919050565b600060208201905081810360008301526125cb8161258f565b9050919050565b7f4552433732313a20617070726f76616c20746f2063757272656e74206f776e6560008201527f7200000000000000000000000000000000000000000000000000000000000000602082015250565b600061262e602183611e91565b9150612639826125d2565b604082019050919050565b6000602082019050818103600083015261265d81612621565b9050919050565b7f4552433732313a20617070726f76652063616c6c6572206973206e6f74206f7760008201527f6e6572206e6f7220617070726f76656420666f7220616c6c0000000000000000602082015250565b60006126c0603883611e91565b91506126cb82612664565b604082019050919050565b600060208201905081810360008301526126ef816126b3565b9050919050565b7f4552433732313a207472616e736665722063616c6c6572206973206e6f74206f60008201527f776e6572206e6f7220617070726f766564000000000000000000000000000000602082015250565b6000612752603183611e91565b915061275d826126f6565b604082019050919050565b6000602082019050818103600083015261278181612745565b9050919050565b7f455243373231456e756d657261626c653a206f776e657220696e646578206f7560008201527f74206f6620626f756e6473000000000000000000000000000000000000000000602082015250565b60006127e4602b83611e91565b91506127ef82612788565b604082019050919050565b60006020820190508181036000830152612813816127d7565b9050919050565b7f455243373231456e756d657261626c653a20676c6f62616c20696e646578206f60008201527f7574206f6620626f756e64730000000000000000000000000000000000000000602082015250565b6000612876602c83611e91565b91506128818261281a565b604082019050919050565b600060208201905081810360008301526128a581612869565b9050919050565b7f4e487b7100000000000000000000000000000000000000000000000000000000600052603260045260246000fd5b7f4e487b7100000000000000000000000000000000000000000000000000000000600052601160045260246000fd5b600061291582611f41565b915061292083611f41565b9250827fffffffffffffffffffffffffffffffffffffffffffffffffffffffffffffffff03821115612955576129546128db565b5b828201905092915050565b7f4552433732313a206f776e657220717565727920666f72206e6f6e657869737460008201527f656e7420746f6b656e0000000000000000000000000000000000000000000000602082015250565b60006129bc602983611e91565b91506129c782612960565b604082019050919050565b600060208201905081810360008301526129eb816129af565b9050919050565b7f4552433732313a2062616c616e636520717565727920666f7220746865207a6560008201527f726f206164647265737300000000000000000000000000000000000000000000602082015250565b6000612a4e602a83611e91565b9150612a59826129f2565b604082019050919050565b60006020820190508181036000830152612a7d81612a41565b9050919050565b7f4552433732314d657461646174613a2055524920717565727920666f72206e6f60008201527f6e6578697374656e7420746f6b656e0000000000000000000000000000000000602082015250565b6000612ae0602f83611e91565b9150612aeb82612a84565b604082019050919050565b60006020820190508181036000830152612b0f81612ad3565b9050919050565b600081905092915050565b6000612b2c82611e86565b612b368185612b16565b9350612b46818560208601611ea2565b80840191505092915050565b6000612b5e8285612b21565b9150612b6a8284612b21565b91508190509392505050565b7f4552433732313a206f70657261746f7220717565727920666f72206e6f6e657860008201527f697374656e7420746f6b656e0000000000000000000000000000000000000000602082015250565b6000612bd2602c83611e91565b9150612bdd82612b76565b604082019050919050565b60006020820190508181036000830152612c0181612bc5565b9050919050565b7f4552433732313a207472616e73666572206f6620746f6b656e2074686174206960008201527f73206e6f74206f776e0000000000000000000000000000000000000000000000602082015250565b6000612c64602983611e91565b9150612c6f82612c08565b604082019050919050565b60006020820190508181036000830152612c9381612c57565b9050919050565b7f4552433732313a207472616e7366657220746f20746865207a65726f2061646460008201527f7265737300000000000000000000000000000000000000000000000000000000602082015250565b6000612cf6602483611e91565b9150612d0182612c9a565b604082019050919050565b60006020820190508181036000830152612d2581612ce9565b9050919050565b6000612d3782611f41565b9150612d4283611f41565b925082821015612d5557612d546128db565b5b828203905092915050565b7f4552433732313a20617070726f766520746f2063616c6c657200000000000000600082015250565b6000612d96601983611e91565b9150612da182612d60565b602082019050919050565b60006020820190508181036000830152612dc581612d89565b9050919050565b7f4552433732313a207472616e7366657220746f206e6f6e20455243373231526560008201527f63656976657220696d706c656d656e7465720000000000000000000000000000602082015250565b6000612e28603283611e91565b9150612e3382612dcc565b604082019050919050565b60006020820190508181036000830152612e5781612e1b565b9050919050565b6000612e6982611f41565b91507fffffffffffffffffffffffffffffffffffffffffffffffffffffffffffffffff821415612e9c57612e9b6128db565b5b600182019050919050565b7f4e487b7100000000000000000000000000000000000000000000000000000000600052601260045260246000fd5b6000612ee182611f41565b9150612eec83611f41565b925082612efc57612efb612ea7565b5b828204905092915050565b6000612f1282611f41565b9150612f1d83611f41565b925082612f2d57612f2c612ea7565b5b828206905092915050565b600081519050919050565b600082825260208201905092915050565b6000612f5f82612f38565b612f698185612f43565b9350612f79818560208601611ea2565b612f8281611ed5565b840191505092915050565b6000608082019050612fa26000830187611fd6565b612faf6020830186611fd6565b612fbc604083018561206c565b8181036060830152612fce8184612f54565b905095945050505050565b600081519050612fe881611df7565b92915050565b60006020828403121561300457613003611dc1565b5b600061301284828501612fd9565b91505092915050565b7f4e487b7100000000000000000000000000000000000000000000000000000000600052603160045260246000fd5b7f4552433732313a206d696e7420746f20746865207a65726f2061646472657373600082015250565b6000613080602083611e91565b915061308b8261304a565b602082019050919050565b600060208201905081810360008301526130af81613073565b9050919050565b7f4552433732313a20746f6b656e20616c7265616479206d696e74656400000000600082015250565b60006130ec601c83611e91565b91506130f7826130b6565b602082019050919050565b6000602082019050818103600083015261311b816130df565b905091905056fea2646970667358221220a008b1d640f2d43df6205638e7594154524869fe0b99e31191e20bd2d1e6b41e64736f6c634300080b0033",
  "immutableReferences": {},
  "source": "pragma solidity ^0.8.0;\r\n\r\nimport \"@openzeppelin/contracts/token/ERC721/extensions/ERC721Enumerable.sol\";\r\n\r\ncontract Test is ERC721Enumerable{\r\n    uint public newTokenId;\r\n\r\n    struct Point {\r\n        int x;\r\n        int z;\r\n        uint y;\r\n    }\r\n\r\n    struct Branch {\r\n        Point[] bendPoints;\r\n        Point boughTouchPoint;\r\n    }\r\n\r\n    struct Bough {\r\n        Point[] boughPoints;\r\n    }\r\n\r\n    struct Tree{\r\n        Branch[] branches;\r\n        Bough bough;\r\n    }\r\n\r\n\r\n    Tree[] public trees;\r\n\r\n    enum woodColor {Brown, DarkBrown, Blue,Red,Pink,Dupa,Yellow,Black}\r\n    enum leafColor {Red, Orange,Green, DarkGreen, Pink, Yellow,Black, UltraRainbow}\r\n\r\n    constructor() ERC721(\"Tree\", \"Tre\"){\r\n        newTokenId = 0;\r\n    }\r\n\r\n    function mintTree() external {\r\n//        newTokenId += 1;\r\n//        Point memory point =   Point(1,1,1);\r\n//        Point[] memory points;\r\n//        points[0] = Point(1,1,1);\r\n//\r\n//        Branch memory  branch =   Branch(points, point) ;\r\n//        Branch[] memory branches;\r\n//        branches[0] = branch;\r\n//\r\n//        Bough memory bough =   Bough(points);\r\n//\r\n//        Tree memory tree =   Tree(branches, bough);\r\n//        trees.push(tree);\r\n//        _safeMint(msg.sender, newTokenId);\r\n//        return newTokenId;\r\n        _safeMint(msg.sender, newTokenId);\r\n        newTokenId += 1;\r\n        //return newTokenId;\r\n    }\r\n\r\n\r\n}",
  "sourcePath": "C:\\Users\\wiki\\Desktop\\frontend\\src\\contracts\\test.sol",
  "compiler": {
    "name": "solc",
    "version": "0.8.11+commit.d7f03943.Emscripten.clang"
  },
  "schemaVersion": "3.4.4",
  "updatedAt": "2022-01-30T12:08:40.527Z",
  "networkType": "ethereum",
  "devdoc": {
    "kind": "dev",
    "methods": {
      "approve(address,uint256)": {
        "details": "See {IERC721-approve}."
      },
      "balanceOf(address)": {
        "details": "See {IERC721-balanceOf}."
      },
      "getApproved(uint256)": {
        "details": "See {IERC721-getApproved}."
      },
      "isApprovedForAll(address,address)": {
        "details": "See {IERC721-isApprovedForAll}."
      },
      "name()": {
        "details": "See {IERC721Metadata-name}."
      },
      "ownerOf(uint256)": {
        "details": "See {IERC721-ownerOf}."
      },
      "safeTransferFrom(address,address,uint256)": {
        "details": "See {IERC721-safeTransferFrom}."
      },
      "safeTransferFrom(address,address,uint256,bytes)": {
        "details": "See {IERC721-safeTransferFrom}."
      },
      "setApprovalForAll(address,bool)": {
        "details": "See {IERC721-setApprovalForAll}."
      },
      "supportsInterface(bytes4)": {
        "details": "See {IERC165-supportsInterface}."
      },
      "symbol()": {
        "details": "See {IERC721Metadata-symbol}."
      },
      "tokenByIndex(uint256)": {
        "details": "See {IERC721Enumerable-tokenByIndex}."
      },
      "tokenOfOwnerByIndex(address,uint256)": {
        "details": "See {IERC721Enumerable-tokenOfOwnerByIndex}."
      },
      "tokenURI(uint256)": {
        "details": "See {IERC721Metadata-tokenURI}."
      },
      "totalSupply()": {
        "details": "See {IERC721Enumerable-totalSupply}."
      },
      "transferFrom(address,address,uint256)": {
        "details": "See {IERC721-transferFrom}."
      }
    },
    "version": 1
  },
  "userdoc": {
    "kind": "user",
    "methods": {},
    "version": 1
  }
}